:10000000A3C20000BEC20000BCC200000C94E920E4
:10001000B8C20000B6C20000B4C20000B2C2000004
:10002000B0C20000AEC200000C94AB260C9477273F
:100030000C94971FA6C20000A4C20000A2C2000038
:10004000A0C200009EC200009CC200009AC2000034
:1000500098C200000C940E2094C2000092C20000CE
:1000600090C200008EC200008CC200008AC2000054
:1000700088C2000086C2000084C2000082C2000064
:1000800080C200007EC200007CC200007AC2000074
:1000900078C2000076C2000074C2000072C2000084
:1000A00070C200006EC200006CC2000001571F0049
:1000B00020002100220014001A000800150017007B
:1000C00004001600070009000A411D221B0006005B
:1000D0001900050000000000E0002C00E3422300AE
:1000E00024002500260027001C0018000C00120028
:1000F00013000B000D000E000F0033001100100064
:1001000036003700380028222A0022520000000062
:10011000350200000000000000002B00000000007D
:100120000000000000000000000000000000E100EE
:100130000000000000000000000000000000E200DD
:100140000000000000002D002E004C000000000008
:100150002F003000310000000000000034000000DB
:100160000000000000000000E100E10000000000CD
:10017000000000003A003B003C003D003E002B0028
:100180000000000000000000E1000000000000008E
:100190000000E0000000000000000000000000007F
:1001A0000000E20000003F00400041004200430028
:1001B00000000000520000004C0000005000510000
:1001C0004F0028000000AA00AE00A900E0000000D7
:1001D0002A000000000000006C65645F7461736BAE
:1001E0003A20253032580A004F6E6573686F743AB2
:1001F000206163746976653A2025640A00444542AB
:1002000055473A2064697361626C65642E0A004444
:10021000454255473A20656E61626C65642E0A005E
:100220000A0025303862003A200025303258000A92
:10023000722F632030313233343536370A0054613F
:100240007267657420636F6E6E65637465640D0A12
:100250000054617267657420646973636F6E6E65C4
:10026000637465642C207468726F74746C696E6753
:1002700020636F6E6E656374696F6E206174746560
:100280006D7074730D0A004661696C656420746F4B
:1002900020657865637574652025730A00290A0056
:1002A0002575002F002575005D28002564002000BD
:1002B000256400200025640020002564007C0025C2
:1002C000303258006D6F7573656B6579205B6274B1
:1002D0006E7C782079207620685D287265702F61A9
:1002E000636C293A205B000A002530325820006EEA
:1002F0006B726F5F7265706F72743A20253032587E
:10030000207C20000A002530325820006B6579627D
:100310006F6172645F7265706F72743A202530325B
:1003200058207C200064656C5F6B65795F6269743E
:100330003A2063616E27742064656C3A2025303260
:10034000580A006164645F6B65795F6269743A2082
:1003500063616E2774206164643A20253032580A44
:100360000073757370656E64696E67206B65796282
:100370006F6172640D0A005B575D005B535D005B4B
:10038000525D005B445D005B435D001603620065E7
:10039000006E00690061007200690073003400366D
:1003A0000000002A0343006F006E007300740061B8
:1003B000006E00740069006E006500200042006558
:1003C000006E0069006100720069007300000004A3
:1003D00003090409025400030100A0FA0904000003
:1003E0000103010100092111010001224400070558
:1003F0008103080001090401000103000000092134
:100400001101000122B60007058203200001090442
:100410000200010300000009211101000122150062
:10042000070583032000011201000200000008ED0F
:10043000FE00000001010200010631FF0974A10164
:100440000975150026FF00952075088102C0050179
:100450000902A10185020901A10005091901290864
:100460001500250195087501810205010930093142
:100470001581257F95027508810609381581257F2C
:10048000950175088106050C0A38021581257F95AE
:100490000175088106C0C005010980A10185031905
:1004A000012AB700150126B700950175108100C01B
:1004B000050C0901A101850419012AA002150126D4
:1004C000A002950175108100C005010906A10185F2
:1004D00006050719E029E715002501950875018132
:1004E000020507190029EF1500250195F075018116
:1004F00002050819012905950575019102950175F7
:10050000039101C005010906A101050719E029E7CA
:100510001500250195087501810295017508810175
:100520000507190029FF150026FF009506750881AB
:10053000000508190129051500250195057501918A
:1005400002950175039101C011241FBECFEFDAE0BF
:10055000DEBFCDBF11E0A0E0B1E0E2E5F4E502C00E
:1005600005900D92AA3FB107D9F723E0AAEFB1E0B9
:1005700001C01D92A536B207E1F70E94E9150C945F
:10058000D5293ECDFF93EF93E091FA01F091FB0165
:10059000309709F00995EF91FF910895FC0185913D
:1005A000803011F0EFDFFBCF0895FF27E0E230E26B
:1005B00047FF0CC0419597FF09C0EDE2609570952B
:1005C00080959095611D711D811D911D27FF02C0B1
:1005D000219530E350E2AA27660F771F881F991FE5
:1005E000AA1FA41710F0A41B63955A95A9F7AA3067
:1005F00008F0A95FA05DAF93F395611571058105C2
:10060000910541F7ED3211F4EF93F395F21718F4D9
:100610003F93F395FBCF8F91B5DFFA95E1F70895FE
:10062000E991F9918591803021F0853219F0AADFA6
:10063000F9CF089520E0E89455915532C1F3503335
:1006400011F4689455915A3348F4505390F3220FA3
:10065000022E220F220F200D250FF4CF0EF421952C
:1006600089919991533619F3533729F1533559F13B
:10067000BC0188279927E8945C3621F489919991E7
:1006800068945591543639F446EF7EF077FF0DC0EB
:100690008FEF9FEF0AC055374AE039F0583540E1F7
:1006A00021F0523642E009F00895FF93EF937DDF89
:1006B000EF91FF91B7CFFF93EF93FC0181918030D1
:1006C000B9F360DFFBCFFF93EF9368DFF1CFDF93E8
:1006D000CF93CDB7DEB72596A3DFCF91DF910895F5
:1006E0008A3021E49207E1F068F48D3122E292072A
:1006F000E9F0883222E29207B1F08C97D1F488E5D4
:1007000092E00895811527E5920781F0813027E571
:10071000920719F0833E924461F486E990E00895CF
:100720008FEA90E008958DE790E0089588EC90E0DE
:10073000089584E690E008958330C8F46A30B8F4F0
:100740004530A8F450E095E0699F400D511D1124FB
:1007500092E3899F400D511D1124FA01EE0FFF1FF6
:10076000E455FF4F85919591282F822F089521E020
:1007700090E0FBCFE1CF089582E090E008958230D1
:10078000910550F44AE0489F9001499F300D112493
:10079000C90180509F4F089580E090E008959C012A
:1007A00091509F31B0F4832F817034FF0AC082953D
:1007B000807F31FD806232FD806433FF0BC0806832
:1007C000089531FD826032FD846033FF03C088608C
:1007D000089580E00895CF93DF93EB01E0DFFE0101
:1007E0000995DF91CF910895CF93DF93EC01805E5F
:1007F0009109089720F067E378E0209711F468E307
:1008000076E0CE01E8DF8C2FA5D1DF91CF9108955E
:10081000CF93DF93EC01E1D1CE01805E910908977F
:1008200020F06CE378E0209711F46DE376E0CE01E0
:10083000D2DFDF91CF91089581E0089581E008959E
:10084000FBCF089581E0089581E00895FDCF0895DC
:1008500008950895FDCF089508950895A6E0B0E0A5
:10086000E4E3F4E00C94482949835A839E83309151
:10087000010289819A81311117C03E81311589F0B9
:10088000211579F046D5182F682F89819A8120D5B6
:1008900069817A81812F0E94B10F2696E3E00C9442
:1008A000642927D5182FF4CF34D569817A81F3CF05
:1008B000FC01262F40815181628173818481958161
:1008C000CDCFCF93DF93EC0161E0F2DFBE01B6DF65
:1008D000811529F061E0CE01EBDFBE01B1DFDF91D0
:1008E000CF9108950F931F93CF93DF93EC0160E0B6
:1008F000DFDF8C01BE01ADDFBE01C801ABDFDF91E0
:10090000CF911F910F9108950F931F93CF93DF9372
:10091000EC0161E0CDDF182F092FBE010E94921B70
:10092000811529F061E0CE01C3DF182F092FBE0128
:10093000812F902F87DF811106C080E0DF91CF915A
:100940001F910F910895BE01812F902F7FDF811598
:10095000A1F3BE01812F902F0E94C21B811569F364
:10096000BE01812F902F0E948F1A811531F3BE0195
:10097000812F902F0E945E168115F9F2BE01812F02
:10098000902F0E9433168115C1F2BE01812F902F46
:100990000E94F710811589F2BE01812F902F0E94CD
:1009A0000911811551F2BE01812F902F0E94231150
:1009B000C5CF21E030E002C0220F331F8A95E2F755
:1009C000C901C1C3CF93C82F81E090E00C2E02C0B3
:1009D000880F991F0A94E2F70E94D20D8C2FE9DF4D
:1009E000CF91089581E0089581E00895FBCF0895A7
:1009F000CF93C82F57D38C2FF7DF8C2FF7DF8FEFD4
:100A000094E32CE0815090402040E1F700C00000CA
:100A1000CF91089581E0ECDF0C94322080E0E8DF94
:100A20000C94432019DF0E942B1F27C028D015DF0C
:100A30000C942F1F8295982F990F990F9C7C869567
:100A400086958373982B892F880F8A7A969595754A
:100A5000892B089581E008950895CF93DF93D82FCF
:100A6000F9DFC82F811511F08D2FF6DF8C2FDF9164
:100A7000CF9108950895F1CF089580E0FCCF0E94B2
:100A8000721CF9CFCF930E94721CC82F8091FC0179
:100A90008C17F1F0C093FC010E9402206093FD01CD
:100AA0007093FE018093FF01909300028091C20237
:100AB0008570853059F41F92CF9388ED91E09F9314
:100AC0008F9305DE0F900F900F900F908C2FD3DF38
:100AD000CF910895ADE0B0E0E0E7F5E00C9449294E
:100AE000488759876A877B878C879D87911133D781
:100AF0001F8286E0FE0138969E012F5F3F4FD9018D
:100B000001900D928A95E1F78D8181110CC02981A8
:100B10003A814B815C816D817E818F8164D62D9677
:100B2000E2E00C946529CE010196CBDE8111EFCF76
:100B3000F6CFFC012481213019F4808191811CC4FD
:100B40000895611521F00E94BA170C946F180E9445
:100B5000FA17FBCFCF93C82F811581F08450813ACB
:100B600078F48C2F0E94B51D811521F08C2F0E94E6
:100B7000741E7FD78C2F0E945D1E7BD7CF91089566
:100B80008C2F805E883048F481E0C1FD84E0C0FD98
:100B9000880FC2FD8295BDD6F0CF8C2F855A833049
:100BA00030F48C2F8452990B0E94411DE7CFEC2F1B
:100BB000E85AEB3150F4F0E0EE0FFF1FE75AFE4F1A
:100BC000808191810E94681DD9CF8C2F8D5C8331EB
:100BD000A8F661E08C2FB5DFD1CF811559F1982FA0
:100BE0009450913A18F40E94741E43C7982F905E57
:100BF000983050F4982F81E091FD84E090FD880FAB
:100C000092FD82958CD6F1CF982F955A933020F48F
:100C100080E090E00C94411D982F985A9B3120F46D
:100C200080E090E00C94681D982F9D5C933110F447
:100C300060E087CF08951F93CF93DF93182FEB01C8
:100C400089DF209731F4812FC8DFDF91CF911F9189
:100C500008958FE99FE00197F1F700C00000219708
:100C6000F0CF60E570E0893311F060E070E0E3CF31
:100C7000811511F04ED6FDC60895811511F04FD69D
:100C8000F8C60895A0E0B0E0E8E4F6E00C9443294B
:100C90006C01D62FC72FFC011581068102950F70BC
:100CA0002DD6E82E8115E9F0E12E1115D1F08C2F0B
:100CB000807F803461F08D2F805E8830E0F08C2F53
:100CC000807E803221F4D230B0F00115A1F0809105
:100CD000390382FF10C082E0F0D610D691E0892758
:100CE000E82EEC2FE295EF70C03C78F5F0E0E95289
:100CF000F64D0C943329E12CF4CF0C2F0F70C0313A
:100D000010F00295007F111581F0011549F08D2F2B
:100D1000805E883010F0D11105C0802FFAD5A9D699
:100D20008D2F40C0802F09D6FACF8D2F56DF0115A9
:100D300061F08D2F805E883010F0D11103C0802FBC
:100D4000EED502C0802FFFD594D6E11409F4B3C0CC
:100D5000D1D580FDB0C0F6011582C6D524D2C6011A
:100D600068D1C2D52ED2A7C08C2F8F70F82EC07F2D
:100D7000C03219F0F29480EFF822D13038F079F1D6
:100D8000111509F438C00115C9F0CACF8091390393
:100D900082FD10C0111541F0F11419F08F2DB9D555
:100DA00068D680E0D7DED1CF80E017DFF11469F29A
:100DB0008F2DC6CF111551F0013018F48F2D58DF4B
:100DC000C4CF09F0C2CF8F2DDDD5BFCF0111BDCF6C
:100DD0008F2D53DF8F2DE1D58F2DC6D5B6CF1115B1
:100DE00021F0063008F0B1CFE9CF053008F0ADCFE3
:100DF0008F2D43DFAACF0115D9F3D93349F48FEFF3
:100E000097EE23E0815090402040E1F700C00000C1
:100E10008D2FE3DE9ACF8C2F869586958370813057
:100E200060F009F092CF8D2F9C2F9370111102C0AA
:100E300080E090E00E94681D88CF8D2F9C2F9370DA
:100E4000111102C080E090E00E94411D7ECF612F11
:100E50008D2F77DE7ACF8C2F8370C1F5111128C0CA
:100E60004D2F429546954770440F440F2D2F2F70FC
:100E700030E0042E02C0220F331F0A94E2F780E014
:100E800090E0D4FF09C08FE090E002C0880F991F66
:100E90004A95E2F780959095C695C695C370822BCA
:100EA000932BC23079F0C33079F0C13049F054D17E
:100EB0000E94721CE0DDCDB7DEB7E8E00C945F293C
:100EC00044D1F6CF50D1F4CF3ED1F2CF111559F124
:100ED000C0FFEECF4D2F429546954770440F440F0B
:100EE0002D2F2F7030E0042E02C0220F331F0A94E2
:100EF000E2F780E090E0D4FF09C08FE090E002C00C
:100F0000880F991F4A95E2F780959095C695C695EA
:100F1000C370822B932BC23061F0C33061F0C130BB
:100F200031F074D1C5CF823008F4C2CFD3CF67D1AE
:100F3000BFCF73D1BDCF24D1BBCFCF70111529F056
:100F40008C2F31D18D2F94DEB3CF8D2F96DE8C2F49
:100F500038D1AECFD23F31F168F4D03FC1F0D13FAC
:100F600089F0111509F43EC0011509F438C08D2F20
:100F7000F1DD9ECFD33FE1F0D43F99F78091390363
:100F800082FD1EC08C2F8F71111511F30FC011152A
:100F900039F0053008F08CCF8C2F8F7122D188CF9B
:100FA0000630F8CF8C2F8F711111D2CFFCD080CFAB
:100FB000111521F08C2F8F71EDD07ACFE8D078CF3A
:100FC000111529F063E08C2F8F7160D571CF81E00E
:100FD00074D5023008F46CCF82E06FD569CF8C2FC6
:100FE0008F71E4CF011571F0D93349F48FEF97EE8B
:100FF00023E0815090402040E1F700C000008D2F99
:10100000ECDD56CF8C2F8F71A3CF0F931F93CF930F
:10101000DF93EC01688179818D81B7D18C0104D196
:1010200091D0B801CE012EDEDF91CF911F910F91AB
:101030000895CF93DF93EC018C81811581F0CE016F
:1010400063DC81110FC05AD4811549F08D8181155F
:1010500031F08091390382FF02C082E02ED5DF910A
:10106000CF910895CE01D1DFCE013CDCF8CF8115C0
:1010700011F063D4FEC40895811511F064D4F9C44D
:10108000089580E090E00E94411D80E090E00E9481
:10109000681D61D4EED40E9427190C946F180E9429
:1010A0008B1EEFCF44D4FBCF282F92959F709630A4
:1010B00099F060F4925F9F70923030F4203FB1F06D
:1010C00038F481E0283E38F080E008959A5FF3CF4D
:1010D00081E0243FC9F7089591E0813F09F090E055
:1010E00081E0283E08F080E0892B089581E0089592
:1010F000FC012481211521F0808191813DD1D4CF43
:1011000080E00895A6E0B0E0E8E8F8E00C94492912
:101110002696E2E00C946529A7E0B0E0E2E9F8E069
:101120000C9449292796E2E00C9465290895FECF96
:101130000895FDCF0895FADFFCDF8093200290939D
:10114000210208950895F7CF08952091200230914B
:101150002102822B932BEFCF20912002309121028C
:1011600082239323E8CF209120023091210282270D
:101170009327E1CFDBCF0895FDCF0895D7CF089512
:10118000FDDFFADF80931E0290931F02089580E036
:1011900090E0F6CF21E030E002C0220F331F8A95A5
:1011A000E2F7C901EDCF21E030E002C0220F331F8A
:1011B0008A95E2F780911E0290911F02822B932B59
:1011C000DFCF21E030E002C0220F331F8A95E2F723
:1011D0002095309580911E0290911F0282239323C7
:1011E000CFCF21E030E002C0220F331F8A95E2F713
:1011F00080911E0290911F0282279327C1CF2091D8
:101200001E0230911F02822B932BBACF20911E0217
:1012100030911F0282239323B3CF20911E0230917D
:101220001F0282279327ACCF0895CF93C1E061FDC1
:10123000C4E060FDCC0F62FDC29593E076956795A2
:101240009A95E1F7660F771F660F771F460F571FB6
:10125000FA0140E050E090E06191DF019C01042E32
:1012600002C0369527950A94E2F72695220B262789
:101270002C2326272E934F5F5F4F4430510561F793
:10128000CF910895A82FA77023E0969587952A956A
:10129000E1F7880F991F880F991F680F791FFB01CD
:1012A00040E050E080E0219130E00A2E02C0369507
:1012B00027950A94E2F72170042E01C0220F0A94A8
:1012C000EAF7822B4F5F5F4F4430510561F7089575
:1012D000262F9A3068F4853058F4682F70E085E046
:1012E000989F600D711D112442E052E0822F9DCF26
:1012F0000895292F9A3058F4853048F490E062E040
:1013000072E035E0239F800D911D1124BBCF80E05A
:101310000895CF92DF92FF920F931F93CF93DF93A5
:101320006C0100911E0210911F0280912002909189
:101330002102082B192BCFE0D0E081E090E00C2EA9
:1013400002C0880F991F0A94E2F780239123892B0A
:1013500061F4219790F7F12C8F2DDF91CF911F91A0
:101360000F91FF90DF90CF900895FC2EB6018C2F47
:1013700003D6019771F3F0CFCF93DF93EC01C9DF70
:10138000BE01FAD5DF91CF9108951F93CF93DF93DC
:10139000EB0190910102911531F0CB01EDDFDF916E
:1013A000CF911F910895811551F0CB01B2DF182F15
:1013B000682FCE018DDFBE01812FDED5F0CFCB01AE
:1013C00098DF182FF8CF0F931F930091220280917E
:1013D0002302801303C01F910F91089587E0089F97
:1013E000F0011124EC5DFD4F208131814281538158
:1013F00064817581868190DE0F5F1F4F0770E7CF94
:1014000020915C0230915D0240915E0250915F023A
:101410006091600270916102809162027DCEE091E4
:10142000220290912302E91302C080E008959F01F7
:1014300057E0E59FF0011124EC5DFD4F51815613FB
:1014400006C05081581303C05581541305C02F5F47
:101450003F4FF901E770E7CF81E00895EF92FF92E7
:101460000F931F93CF93DF9380916202803108F036
:1014700045C080916102811509F440C0809122022B
:10148000909123029817D1F17C0197E0899FE001A8
:101490001124FE01EC5DFD4F84818115A1F1918144
:1014A00080915D0298132FC0908180915C02981307
:1014B0002AC08581811127C00281138180915E023B
:1014C00090915F02081B190B60E08CE592E0F0D967
:1014D0006CE572E005D908171907A8F4809162023B
:1014E0008F70806180936202C65DDD4F88818F704E
:1014F000806188838CE592E09CDD65DFCDB7DEB747
:10150000E6E00C946129C70183958770B9CFADE0FF
:10151000B0E0EDE8FAE00C943C298C0186E0F8019B
:10152000DE01189601900D928A95E1F7F801F58099
:1015300074808CE5A82E82E0B82E80916002811123
:1015400017C0711409F4F8C0F11409F441C1C801BD
:10155000CFDD811509F43CC187E0F801D501019088
:101560000D928A95E1F7C501E4DA78DF49DFE4C03E
:10157000C280D380E090610280915E0290915F0210
:101580004601881A990AE11409F4D9C08081582EBD
:101590008181682E60E08CE592E08AD96CE572E08A
:1015A0009FD88816990608F09BC0711409F4C4C02E
:1015B00090915D02F801218180916202803108F0F2
:1015C00055C0291319C020915C029081291314C0C1
:1015D000F11046C08F7080618093620211DF8CE54C
:1015E00092E027DD80916202F8018683F12C8F2D35
:1015F0002D96EFE00C945829F11032C040E0662D92
:10160000852D0DDF40E0662D852D09DFF82E811137
:10161000EDCF88859985B0DE292F22952F709034E3
:1016200050F49F70223078F0911589F0F80196817E
:10163000903168F4DCCF2A5F2F70223060F0C8014F
:10164000F8DCFE2CD4CF911511F0811581F2805E6B
:10165000883068F2F4CF803F50F2815F8330F9CF59
:1016600080916202816080936202C0CF291313C00F
:1016700020915C02908129130EC0F1100CC086836A
:10168000C801D7DC87E0F801ACE5B2E001900D922B
:101690008A95E1F76BCFC8012BDD811509F498C05D
:1016A000F11409F495C080916202803280F020919B
:1016B0005C0230915D0229833A83CB82DC82909177
:1016C00060029D831E828F83CE010196B2DC87E08B
:1016D000F801ACE5B2E001900D928A95E1F745CFB3
:1016E00080916202803188F4488559856A857B85BE
:1016F0008C859D8507DD8CE592E09BDCF50187E01C
:1017000011928A95E9F77CDE71CF7114A9F02091CE
:101710005D02F80191812913BECF20915C02908176
:101720002913B9CFF110B7CF8683C80182DCF50148
:1017300087E011928A95E9F7FF24F39458CF60E08F
:101740008CE592E0B5D86CE572E00E9470038816D3
:10175000990608F040C0711479F3F114C9F1909121
:101760005D02F801818198132AC090915C0280810A
:10177000981325C080915E0290915F02C81AD90A21
:1017800084E6C816D10490F49091620290FD0EC0D8
:10179000903160F0892F9683907F903F09F470CF4D
:1017A000982F907F905F8F70892B69CF87E0F80129
:1017B000ACE5B2E001900D928A95E1F7BDCFC8018A
:1017C00097DC811184CF80916202816080936202F4
:1017D000C8012FDCB1CF488559856A857B858C850A
:1017E0009D8590DC8BCFAEE0B0E0E9EFFBE00C94A0
:1017F0004829288739874A875B876C877D878E874A
:10180000CE01089684DE6C85811599F0611539F05A
:10181000288539854A855B857D858E857DDC80912F
:1018200022029091230289133DC02E96E3E00C948E
:10183000642987E09E01285F3F4FF9012750310955
:10184000D90101900D928A95E1F7611541F3A091BC
:1018500023028A2F90E08395877090E0AC0120915D
:1018600022022417150691F097E09A9FD0011124C7
:10187000AC5DBD4F9E012F5F3F4FF90101900D926E
:101880009A95E1F7409323029EDDC9CF0BDC1092BD
:10189000230210922202ECE5F2E087E011928A9591
:1018A000E9F7BDCF17E0189FC00111248C5D9D4F53
:1018B0002EDE811509F4B9CFE09122021E9FF001BE
:1018C0001124EC5DFD4F208131814281538164817F
:1018D0007581868121DC80912202909123020196FC
:1018E0008770809322029BCF80918B02869586958C
:1018F0008695089580918B028770089590918B0250
:10190000977081E0911101C080E008958091B70245
:1019100008959091B702982B9093B70208958095FF
:10192000982F8091B70289238093B702089510926F
:10193000B70208958091B60208959091B602982B4F
:101940009093B60208958095982F8091B6028923CE
:101950008093B60208951092B602089580918D0288
:1019600008950895FECF089590918C02292F282381
:1019700029F08095892380938C02F4CF08950895EF
:10198000FECF089590918D02292F2823281721F04A
:10199000982B90938D02F4CF089590918D02292F6A
:1019A000282329F08095892380938D02E9CF08951B
:1019B00080918D02811521F010928D0280E0E0CFA0
:1019C0000895CF93C091B7028091B602C82B809141
:1019D0008D02811529F0C82B0E948F1D8111E8DF2F
:1019E0008C2FCF910895CF93DF93C0911E01D0919A
:1019F0001F01E7DF8883C0911E01D0911F0148E0DD
:101A000050E063E872E0CE010E948429892B59F0EE
:101A100088E0FE01A3E8B2E001900D928A95E1F71B
:101A2000CE010E94881CDF91CF910895CF93DF9360
:101A3000C0911C01D0911D01C4DF8983C0911C019C
:101A4000D0911D0140E250E063E672E0CE010E94B9
:101A50008429892B59F080E2FE01A3E6B2E00190CF
:101A60000D928A95E1F7CE010E94D81CDF91CF91AB
:101A700008950E946B1C811529F08091380387FF1F
:101A800001C0D4CFB0CF0895FECF0895909139030F
:101A900092FF0EC0982F990F990F990F962B909344
:101AA0008B0281DB80918B02869586958695ECCFA3
:101AB0007ACB10928B0280E0E7CF90918B028095D9
:101AC000892380938B02282F277059F4891749F0B6
:101AD0009091390392FF05C086958695869571DBB6
:101AE000E8CF0895CF93C82F8091390382FB9927BF
:101AF00090F99C17C9F0C0FB82F98093390388E301
:101B000093E054D082E0D9DF8091C20280FF0CC004
:101B10001F92CF9388EE91E09F938F930E9467036B
:101B20000F900F900F900F90CF91089580913903EF
:101B3000002482FF0394802DD5CF81E0D3CF80E0B5
:101B4000D1CF80E090E0BC0100C480E090E0BC0117
:101B5000F6D3F7CFA3E0B0E0E0EBFDE00C94492929
:101B6000A7D3B2D31B82CE010396C5D381E090E008
:101B70008093200210922102CAD3198284E18A83C1
:101B8000CE010196D5D3E1DF2396E2E00C946529DE
:101B9000E1CF08959FC308958CC30895A1C308950C
:101BA000B0C30895B4C30895B7C30895C1C30895D9
:101BB000D2C30895A6E0B0E0E0EEFDE00C94472922
:101BC0000E94F61F8C018091B8029091B902801793
:101BD000910779F019821A820E94F61FBC0149818F
:101BE0005A8180E090E00E946A050093B802109349
:101BF000B9022696E4E00C946329DDD26093BE021C
:101C00007093BF028093C0029093C1026093BA02A6
:101C10007093BB028093BC029093BD020895089517
:101C20000895FDCF08950895FEDFFBCF0895FECF00
:101C300008950895FEDFFBCF81E0089585E993E2E2
:101C4000DBD7EEDFF1CFB9C5089508950895089563
:101C5000FCDFFCDFFCCFA0DF811101C099DF82EC4B
:101C600092E09CDF88E393E09FDFE1D799DF6BDAB6
:101C700080911E0290911F027FCA0E94ED1F72D2B6
:101C80009FD5AAD4E8DF0E94691C0E943A05D1D7EB
:101C9000A4D5D0CF92D5811521F00E942B1C0C9495
:101CA0006A1C0895A6E0B0E0E8E5FEE00C94402947
:101CB000C3DF81110AC07EDFEDDF0E9448190E9458
:101CC00042052696EBE00C945C29D4D48EE2A82E33
:101CD00083E0B82E750110E0F7010081812F46D313
:101CE0001F5F1A3009F445C09FEFE91AF90A081777
:101CF00099F38091C20281FD3FD3A5DF982E10E0B9
:101D0000812F34D3F82EF50181915F01F81661F12E
:101D10008F25D82E00E0EE24E3948D2D8E21F1F056
:101D2000CC24C3948F2D8E2109F4C12C911489F0F9
:101D3000602F812F0E94511F81110BC009831A83CC
:101D40000E94F61FBC0149815A8181E09C2D0E94AE
:101D50006A054C2D602F812F0E94651F0F5FEE0CCE
:101D60000530D9F6F501F2921F5F1A3049F645DFCA
:101D7000A3CF0813BECF9FCF0F931F93CF93DF93B3
:101D8000FDD0EC01D23508F050C0D03508F0C8C005
:101D9000C03ED10530F5CD3CD10508F09DC0C83A14
:101DA000D10578F4C53AD10508F093C0C130D1050A
:101DB000B1F1CE010497813A910588F1C0E0D0E0FD
:101DC0002EC0CE01885A91094B97C0F7C85AD0E06F
:101DD000CC0FDD1FC157DE4F0990D881C02DD464D0
:101DE0001EC0D034A8F4D03208F0ADC0C83ED10532
:101DF000B0F0CE0191509F3108F78D2F62D1082F9E
:101E00008C2F90E0BBD0D02FDF71C82FD92B07C00B
:101E10008C2F90E0B3D0DF70C82FD92BD06ACE01C1
:101E2000DF91CF911F910F910895C03882E5D807B7
:101E3000B8F5C03682E5D80708F056C0C03482E550
:101E4000D807C8F4C03282E5D80708F047C08C2F05
:101E50008695869520E2829FC0011124C37021E0FF
:101E600030E002C0220F331FCA95E2F7E901C82B08
:101E7000D92BDD68D4CF8C2F86958695877020E28C
:101E8000829FC0011124C37021E030E002C0220F04
:101E9000331FCA95E2F7E901C82BD92BDC68BFCF05
:101EA000C03C82E5D80750F48C2F8F71C03AD245E0
:101EB00080F5982F84EF906AEC01B1CFCE01805C61
:101EC0009245809708F07ACFDC2FDF71C0EFD06A9F
:101ED000A6CFA497D064A3CFD065A1CF8C2F8F714C
:101EE000D82FC1EFD06A9BCF8C2F869586958770AF
:101EF00020E2829FC0011124C37021E030E002C0C3
:101F0000220F331FCA95E2F7E901C82BD92BDA68F3
:101F100086CFD7D0982F80E09F71EC01D0627FCF21
:101F20008C2F8F71CED053E0CC0FDD1F5A95E1F787
:101F3000DF70282F84FF04C090E1899F9001112455
:101F4000C22FD0696CCF8D2F8F71BBD0082F8C2FF3
:101F500090E014D0302F3F71282F392B3062E901E7
:101F60005ECF462F7A3028F4653018F4672F0C9432
:101F7000BA0380E090E00895F4DFFECE803E910544
:101F8000D1F1C8F48133910509F481C048F4893254
:101F9000910509F471C08A32910509F47FC0089552
:101FA00089339105E1F082389105C9F085339105B7
:101FB00009F45DC00895843E9105D1F148F4823E54
:101FC000910531F1833E910541F181EE90E0089554
:101FD000863E9105C1F1873E9105F1F1089520916A
:101FE0003803237009F064C02091390323FF14C023
:101FF00089E290E008952091380320FD45C030919A
:10200000390330FF09C024FD24C083EE90E0089519
:102010002091380322FDF7CF08952091380322FD47
:1020200044C03091390330FD43C024FFF5CF11C0C7
:102030002091390321FFF0CF8091380384FD09C03E
:1020400087EE90E008952091380323FFE5CF24FF29
:10205000F7CF80E090E008952091380323FD2BC056
:102060003091390331FFE1CF84EE90E00895209163
:10207000380325FFD1CFBCCF2091380325FD1EC0EA
:102080002091390323FFC8CF89E390E00895209180
:10209000380326FFC1CF8AE290E0089520913803EB
:1020A00026FFBACF81E390E0089582EE90E0089594
:1020B00080EE90E0089586EE90E0089585E390E04C
:1020C00008959091380392FF10C041E0282F2471A9
:1020D000243009F040E031E0282F2871283009F041
:1020E00030E0431711F02CE0822793FF10C041E04D
:1020F000282F2471243109F040E031E0282F287185
:10210000283109F030E0431711F02CE0822730919C
:10211000390330FF10C051E0282F2171213009F020
:1021200050E041E0282F2871283009F040E0541792
:1021300011F029E0822731FF10C041E0282F2171E2
:10214000213109F040E031E0282F2871283109F0D1
:1021500030E0431711F029E0822794FF02C083FD8D
:10216000877E089510923A0310923B0310923C032D
:1021700010923D030895EF92FF920F931F937B01FE
:102180008C011BD3811112C00E9402209701A8016B
:10219000261B370B480B590BC901DA0180933A0310
:1021A00090933B03A0933C03B0933D031F910F9189
:1021B000FF90EF90089501D3811541F00E94022015
:1021C000462F572FBC01CB01BA0108950E9402206F
:1021D000DC01CB0140913A0350913B0360913C03F9
:1021E00070913D03480F591F6A1F7B1FECCFCF939F
:1021F0009C01205E3245C1E02032310538F4FB01FC
:10220000C581C11103C08F710E94E2048C2FCF9150
:1022100008959C01FB018581811599F02B359CE780
:10222000390769F02C359CE7390721F02A353C47FE
:1022300021F008957BDC80E008957FDCFCCF7FDC1B
:10224000FACF81E00895FB012581211579F18230D3
:102250003CE79307A9F048F481153CE7930761F048
:1022600081309C4731F0822F089583309C47D9F705
:1022700091DC0E940E0502C00E940A0520E0F3CF07
:102280009091C202892F8E7F90FF81608093C2025D
:1022900080FF09C08FE092E09F938F930E946703B5
:1022A0000F900F90EBCF8DEF91E0F6CF21E0DBCFD9
:1022B000089580E090E00E94A2299C0181E0233EE5
:1022C0003E4F09F080E0089563EE7EEF80E090E0FD
:1022D0000C94C1296FEF7FEF80E090E00C94C1294E
:1022E000CF93DF93EC0182E090E00E949A298883EB
:1022F000DF91CF910895FC01608182E090E00C9421
:10230000A72983E090E00E949A2990E00895682F21
:1023100083E090E00C94A729CF93DF93EC0184E055
:1023200090E00E94A22988839983DF91CF9108953C
:10233000FC016081718184E090E00C94C129AB01C3
:10234000BC018FE090E00C94B929AB01BC0183E1A2
:1023500090E00C94B929682F8EE090E00C94A729A6
:102360000895FECF08950895FECF0895E82FF0E078
:10237000E75BFC4F80810895A0E0B0E0E2ECF1E182
:102380000C9443298FE292E09F938F930E946703FE
:1023900089E4C82E83E0D82E0F900F90E12CF12C09
:1023A00002E212E0FF92EF928AE292E09F938F9313
:1023B0000E94670387E292E09F938F930E946703D6
:1023C000F60181916F010E941A051F928F931F934E
:1023D0000F930E94670380E292E09F938F930E9485
:1023E00067038FEFE81AF80A8DB79EB70C960FB601
:1023F000F8949EBF0FBE8DBF8AE0E816F10491F6F7
:10240000E8E00C945F2980EA8A95F1F7089500C00E
:102410000895F9CF08950895FECF0895A5E0B0E09E
:10242000E4E1F2E10C944429C8D1F82E80915303E1
:1024300090E0875B9C4FF114E1F18E010F5F1F4F1D
:10244000F80125E011922A95E9F7B801D2D1E02EE2
:10245000D12E8115B1F080913E0390E045E050E02F
:10246000B801875B9C4F0E94842921E02093C3021E
:10247000892B91F4F12C78DF8F2D2596E7E00C94D1
:1024800060298091C3028115A9F3F80185E01192BA
:102490008A95E9F71092C302A0913E03B0E0A75BD2
:1024A000BC4F85E0EE2DFD2D01900D928A95E1F750
:1024B000E2CF20913E0330E0BC01C901875B9C4F15
:1024C0003FD2AADFD9CFF894E82FE295EF70F0E081
:1024D00041A18F7021E001C0220F8A95EAF7922F67
:1024E0009095942391A392A1822F892B82A3789413
:1024F0000895CF93DF93C5E2D1E089918F3F09F032
:10250000E2DF81E0CA32D807C1F7C0E2D1E08991A9
:102510008F3F09F0D8DF81E0C532D807C1F7DF91DE
:10252000CF910895A0E0B0E0E8E9F2E10C944329EE
:102530006C01E62EC62FD0E08E010B5D1E4FF80118
:1025400080818F3F09F441C0F894E82FE295EF7045
:10255000F0E091A18F7021E001C0220F8A95EAF787
:10256000892F822B81A382A12095282322A37894EE
:102570004EDFA0E2B1E031E0F12C2D912F3F79F058
:10258000E22FE295EF70E05EF0E0808190E02F7046
:1025900002C0959587952A95E2F780FF1BC080E0E1
:1025A000F82A330F81E0A532B80739F7F8018081A6
:1025B0008F3F09F088DF61E0F11001C060E08E2DEF
:1025C00028DFF601EC0FFD1FF082CDB7DEB7E8E0A3
:1025D0000C945F29832FE4CFAAE0B0E0E2EFF2E1B0
:1025E0000C94492980912A01811125C085E0E5ECF0
:1025F000F1E0DE01169601900D928A95E1F785E0F3
:10260000FE013696A5E2B1E001900D928A95E1F7C0
:1026100085E0EBECF1E09E012F5F3F4FD901019087
:102620000D928A95E1F785E0F901A0E2B1E0019011
:102630000D928A95E1F780912A0190E0811101C005
:1026400095E09093530385E0891B80933E0351DF0F
:10265000E9E4F3E08AE011928A95E9F7EFE3F3E029
:102660008AE011928A95E9F745D07BDE2A96E2E06E
:102670000C946529AAE0B0E0E0E4F3E10C9446296B
:10268000FE013196DF018AE01D928A95E9F710E09C
:102690000E2FFF2E612F802F9F2D44DF812F8F5F04
:1026A000182F8530B9F74AE050E0602F7F2D8FE377
:1026B00093E00E94842941E0892B91F440E06091ED
:1026C000530370E0675B7C4F8FE393E014D0182FC7
:1026D000A5DE912F982B892F2A96E5E00C9462298C
:1026E0008AE0E02FFF2DAFE3B3E001900D928A95D1
:1026F000E1F7E5CF0895EF92FF920F931F93CF93E9
:10270000DF938C017B01C42F411579F081E0809328
:10271000C6020E94F61F8093C4029093C50280E017
:10272000CDB7DEB7E6E00C946129D091C602D11591
:10273000B1F38091C4029091C5020E94751F059764
:1027400070F345E050E0B801C7010E948429892B4D
:1027500041F085E0F801D70101900D928A95E1F7EB
:10276000CD2F1092C6028C2FDBCF26982E988FE8A3
:1027700091E00197F1F700C0000088271E9983952A
:1027800008951F93CF93DF93C8ECD0E00E940E29E9
:10279000182F81110AC08FE39CE90197F1F700C05F
:1027A0000000219799F70E940A29812FDF91CF918C
:1027B0001F9108958091CA0208958091C9020895D9
:1027C000E0DF8093C902D1DF8093CA02F3DF8093F8
:1027D0002A01F3DF81115CC00895EFDF811101C090
:1027E0005AC0089581E09091CB029A3008F080E0C1
:1027F0000895EF92FF920F931F93CF938C017B016B
:10280000C091CB02CA30E0F4B701C80197D0811162
:102810002EC08091CB028F3F19F50E94F61F809346
:10282000C7029093C8028091C20280FF12C081E566
:1028300092E09F938F930E9467030F900F9009C0BF
:102840008091C7029091C8020E94751F843F9140F9
:10285000D8F680E0CF911F910F91FF90EF900895EF
:102860008F5F8093CB028A30C0F681E0F3CFCA300D
:1028700060F08091C20280FF08C08EE392E09F93D7
:102880008F930E9467030F900F901092CB02EDCFB1
:102890000C94A42008950C94A7200895CF92DF9261
:1028A000FF920F931F93CF93DF936901E801082FE5
:1028B000880F110B41155105B1F0F80133E0EE0F0F
:1028C000FF1F3A95E1F7E55DFE4F818192818453C8
:1028D0009D4FE0812E2F30E04E17510508F49A01EC
:1028E000A9010E949129C8010E948621F82E811514
:1028F000E1F02097D1F0C80123E0880F991F2A95B5
:10290000E1F7FC01E55DFE4F2381422F50E0C21745
:10291000D10508F4AE01855D9E4FFC01648175818F
:1029200064537D4FC6010E9491298F2DDF91CF9175
:102930001F910F91FF90DF90CF900895FDC00895F3
:1029400014C10895A4E0B0E0E8EAF4E10C9447294A
:102950006091E3027091E4028091E5029091E602B9
:102960000E947E1F11E0643671058105910508F112
:1029700022DCDC01CB010296A11DB11D89839A8363
:10298000AB83BC8300E010E0980144E050E0BE015E
:102990006F5F7F4F82E082DF182F811551F00E9418
:1029A00002206093E3027093E4028093E502909327
:1029B000E602812F2496E4E00C946329A0E0B0E0C5
:1029C000E4EEF4E10C943E296C015B01E42E752EDB
:1029D000490108DF0AE010E0811102C001E010E0C7
:1029E000C1E0D0E0B501C601F4010995F82E8111CE
:1029F00025C021960C171D078CF0CC9F9001CD9F10
:102A0000300D300D112480E090E045E34A95F1F758
:102A10000000019682179307C1F7E4CF8091C202AC
:102A200080FF0CC07F92EF9287E892E09F938F9394
:102A30000E9467030F900F900F900F908F2DCDB7CE
:102A4000DEB7EDE00C945A29A6E0B0E0EAE2F5E149
:102A50000C9441295B01E090E901F090EA0101E06A
:102A600010E0CE0106969C0140E050E0BA0180E003
:102A700015DF182F811509F445C067018FEFC81ABB
:102A8000D80A6091DF027091E0028091E10290919A
:102A9000E2020E947E1F643671058105910558F19E
:102AA00005E010E0CE0101969C0140E050E0BA0143
:102AB00081E0F4DE182F65E070E0C601BBD09E8196
:102AC00098132DC0111559F10E9402206093DF0266
:102AD0007093E0028093E1029093E20285E09E0110
:102AE0002F5F3F4FF901AAEDB2E001900D928A9558
:102AF000E1F781E015C065E070E0C6019BD09E81E2
:102B00008913CECF85E0F70131969E012F5F3F4FAD
:102B1000D90101900D928A95E1F71111DFCF80E084
:102B200095E0EAEDF2E0D50101900D929A95E1F77A
:102B30002696EAE00C945D290F931F93CF93DF93C1
:102B4000EC018B0124E235E141ED51E037DF8115E5
:102B500039F022EA34E14EED51E0B801CE012EDF2A
:102B6000DF91CF911F910F910895CF93DF93C09183
:102B7000E901D091EA01CE01019625E0FB01DC01DB
:102B800001900D922A95E1F765E070E053D08883BB
:102B90008E819F81A885B9854091D6025091D70238
:102BA0006091D8027091D90284179507A607B707DC
:102BB00059F08093D6029093D702A093D802B09395
:102BC000D902BC01CD01D7DADF91CF9108956AC84F
:102BD00008950E94901F0E94F62330D80E940E2470
:102BE0004CD80E9417240E941A24F1DF0E943C2432
:102BF0000E9439222DD8F7CF8093FA019093FB01E0
:102C000008950C94CA0D089580E0B0DB817008959A
:102C100031DD8FE39CE90197F1F700C000002ADD68
:102C2000F3DF811519F0EDDF0C9432200895F0CF19
:102C300008950895FC01680F791F8FEF41E3E617AF
:102C4000F70709F408959191892728E030E0982F3B
:102C5000990F87FF06C0892F842721503040B9F78C
:102C6000EECF892FFACFCF93DF93EB0186319C47CC
:102C700019F50E94860C9D819115A1F08A7A91E048
:102C8000811101C090E09093E702811549F085E33E
:102C90000E945D1E0E94390D80E0DF91CF91089562
:102CA00089E2F6CF8091E702811521F085E30E9449
:102CB000741EF0CF89E2FBCF81E0EFCFCF93DF939B
:102CC000EC01FB018581811509F4CBC09E013057D1
:102CD0002332310508F0ABC088E393E00E94D40DA5
:102CE000FE01E150F047E232F10520F4ED51F64DDE
:102CF0000C9433298091380381608093380390C00D
:102D0000809139038860809339038AC080913803A9
:102D10008260F3CF809138038460EFCF80913803D5
:102D20008860EBCF809139038160EDCF80913903CA
:102D30008260E9CF809138038061DFCF80913803D2
:102D40008062DBCF809138038064D7CF0E94520825
:102D5000809138038068D1CF809138038C60CDCFCB
:102D6000809139038360CFCF809138038E7FC5CFA8
:102D700080913903877FC7CF809138038D7FBDCF86
:102D8000809138038B7FB9CF80913803877FB5CF8F
:102D9000809139038E7FB7CF809139038D7FB3CF78
:102DA000809138038F7EA9CF809138038F7DA5CF86
:102DB000809138038F7BA1CF0E9452088091380305
:102DC0008F779BCF80913803837F97CF8091390392
:102DD0008C7F99CF90913803892F8B7F92FF8460ED
:102DE000877F92FF886089CF80913903982F9095D3
:102DF00090FB80F990FB81F986CF90913803892F61
:102E00008F7B96FF806479CF0E945208909138039F
:102E1000892F97FB87F9805870CF81E00E94D80DE9
:102E200088E393E00E94D60D0E94520880E0DF9173
:102E3000CF91089580E0F2CF90913803892F8F7E53
:102E400094FF80615ACF90913803892F8E7F90FF35
:102E5000816053CF90913903892F877F93FF8860DA
:102E600052CF81E0E4CF382F25EB3203C00111248B
:102E700097FF04C080589109892F089580589F4F6B
:102E8000FBCF8091EE0280FF0DC06091480170E0A1
:102E9000660F771F6038710588F56115710581F13E
:102EA000862F089581FF07C06091480184E0689FE4
:102EB000B0011124EFCF82FF04C06091480188E087
:102EC000F6CF9091ED029115B9F060914701809194
:102ED0004801961728F098E0899FB0011124DACFB5
:102EE000899FC001112423E0880F991F2A95E1F7DB
:102EF00070E00E942029CECF68E0D2CF8FE70895FE
:102F000081E008958091EE0280FF0CC06091440141
:102F100070E075956795759567956115710541F137
:102F2000862F089581FF06C06091440170E0759579
:102F30006795F3CF6091440182FD0BC09091EC0244
:102F40009115A1F06091430180914401961738F0EA
:102F5000682F70E06038710500F38FE70895899F4E
:102F6000C001112470E00E942029F4CF61E0D8CF85
:102F700081E00895E82FED5CE33198F5F0E0EB5F38
:102F8000F54D0C9433297DDF81958093F2020895ED
:102F900078DFFBCF76DF81958093F102089571DFB2
:102FA000FBCFB0DF8093F3020895ACDF8195FACFB9
:102FB000A9DF81958093F4020895A4DFFBCF815DA2
:102FC000990B21E001C0220F8A95EAF78091F00267
:102FD000822B8093F00208958091EE0281608093AD
:102FE000EE0208958091EE028260F9CF8091EE02A8
:102FF0008460F5CF4091F1028D3C59F48091F2024A
:1030000087FF0DC01092F202411559F41092ED02A3
:1030100008C08E3C81F48091F20218169CF3411591
:1030200081F08091F3029091F402892B09F056C04F
:103030001092EC0208958F3C41F447FFF0CF1092BC
:10304000F1028091F2028115E0CF803D19F414164F
:10305000B4F3E5CF9091F302893D29F41916FCF6FB
:103060001092F302DCCF8A3D19F497FFD8CFF8CF46
:103070009091F4028B3D29F497FFD1CF1092F40286
:10308000CECF8C3D19F41916CCF3C9CF982F915D92
:10309000983078F4815D990B21E001C0220F8A9568
:1030A000EAF7822F80959091F00289238093F002B5
:1030B000B6CF8D3D31F48091EE028E7F8093EE028B
:1030C000AECF8E3D21F48091EE028D7FF7CF8F3D04
:1030D00009F0A5CF8091EE028B7FF0CF0895A0E09C
:1030E000B0E0E5E7F8E10C9449298091C20283FF42
:1030F00092C084EC92E09F938F930E94670380912B
:10310000F0021F928F938FEB92E09F938F930E9418
:1031100067038DEB92E09F938F930E9467038091EA
:10312000F102982F990F990B9F938F938AEB92E05E
:103130009F938F930E94670388EB92E09F938F93F6
:103140000E9467038091F202982F990F990B9F9329
:103150008F9385EB92E09F938F930E94670383EB9D
:1031600092E09F938F930E9467038091F302982FC0
:10317000990F990B9F938F9380EB92E09F938F937E
:103180000E9467038EEA92E09F938F930E946703E9
:103190008091F402982F990F990B9F938F938BEA4C
:1031A00092E09F938F930E94670388EA92E09F9337
:1031B0008F930E9467038DB79EB780960FB6F894E1
:1031C0009EBF0FBE8DBF8091ED021F928F9385EA47
:1031D00092E09F938F930E94670383EA92E09F930C
:1031E0008F930E9467038091EE021F928F9380EA73
:1031F00092E09F938F930E9467038DE992E09F93E3
:103200008F930E9467038DB79EB70C960FB6F89404
:103210009EBF0FBE8DBFEAD69C019091F1028091B6
:10322000F202982B21F02093EA023093EB02909166
:10323000F3028091F402982B21F02093E80230935E
:10324000E9028FEE92E00BD4E2E00C946529EFEEF8
:10325000F2E086E011928A95E9F71092ED02109261
:10326000EC021092EE020895FC01828181110EC0E1
:10327000838181110BC08481811108C091E0858117
:10328000811101C090E0892F8170089581E0FCCF09
:10329000A6E0B0E0EEE4F9E10C94462986E0EFEE1A
:1032A000F2E09E012F5F3F4FD90101900D928A9568
:1032B000E1F71092F1021092F2021092F3021092D2
:1032C000F4028B819C81892B022FF32E811581F0D2
:1032D0008091EA029091EB0208D6AC019091ED0248
:1032E0009115A1F1809149018417150608F43BC09E
:1032F0008D819E81892B89F08091E8029091E9026D
:10330000F4D5AC019091EC02911509F45AC080916A
:1033100045018417150608F462C0602F7F2D8FEEDB
:1033200092E011D5811104C08FEE92E09DDF8111F2
:10333000D6DE86E0E02FFF2DAFEEB2E001900D92D9
:103340008A95E1F72696E5E00C94622920914A01DE
:103350008AE0289F900111242417350748F69F5FC3
:103360009093ED0202C09F3FD1F71B81111551F0E0
:1033700088DD91E011160CF09FEF899F802D1124BC
:103380008093F1021C81111551F07BDD91E0111643
:103390000CF09FEF899F802D11248093F202809181
:1033A000F102811509F4A4CF1091F202111509F46C
:1033B0009FCF59DD8093F102812F55DD8093F2027A
:1033C00097CF209146018AE0289F9001112424176D
:1033D000350708F0A2CF9F5F9093EC0202C09F3F99
:1033E000D1F71D81111551F08DDD91E011160CF012
:1033F0009FEF899F802D11248093F3028E81182FD7
:10340000811551F07FDD91E011160CF09FEF899F3F
:10341000802D11248093F4028091F302811509F428
:103420007CCF9091F402192F911509F476CF1BDD12
:103430008093F302812F17DD8093F4026ECFA0E01A
:10344000B0E0E5E2FAE10C9441297C015B01C42F74
:10345000D22FFC0185818115C9F04093F702C6D5B2
:103460008093F5029093F6028C2F805E883048F4AA
:1034700081E0C1FD84E0C0FD880FC2FD82950E94FD
:103480003806CDB7DEB7EAE00C945D291091F7025B
:10349000141338C08091F5029091F60226D56C0184
:1034A000B701C5010E947003C816D90658F5CD2F83
:1034B000C05E1D17C1F0812F805E883048F481E026
:1034C00011FD84E010FD880F12FD82950E943D06DB
:1034D000C83048F481E0D1FD84E0D0FD880FD2FDF2
:1034E00082950E943806802F0E94310681E0D1FD2E
:1034F00084E0D0FD880FD2FD8295C83010F60E947E
:103500003D06BFCF8C2F805E883008F0BACF81E0B7
:10351000C1FD84E0C0FD880FC2FD8295F0CF0F93FE
:10352000FC01CB01E851FC47E730F10588F5E85E86
:10353000F54D0C94332906E221EE41EE6AE17CE779
:103540007EDF80E00F91089507E225EE45EE6BE106
:103550007CE7F6CF06E221EE40EE68E17CE7F0CFB3
:1035600007E225EE44EE69E17CE7EACF06E221EED0
:1035700042EE6CE17CE7E4CF07E225EE46EE6DE13A
:103580007CE7DECF08E221E045EE6EE17CE7D8CFB4
:10359000FB01858181111092F70281E0D3CF4115A3
:1035A000510511F0FA0109950895CF93DF93C82FC3
:1035B000D62F0E94BC03C817190608F046C0EAEFD0
:1035C000F2E020E030E047E0429FC001439F900DD1
:1035D0001124DC01A150BD4F5C9153FF08C05681FE
:1035E0005C1305C086509D4FDF91CF9108952F5FEA
:1035F0003F4F37962330310539F7D11531F180919E
:10360000FF0283FF1CC08091060383FF1BC08091D3
:103610000D0383FD1AC082E090E027E0289FF001AF
:10362000299FF00D1124CF0186509D4FDC01169685
:10363000CC93E150FD4F208128602083D5CF80E0DE
:1036400090E0EBCF81E090E0E8CF80E090E0CCCF5D
:10365000CF93DF93EB01FC01448155816085718537
:10366000CE019DDF8B810E94A30C8C810E948F0C68
:103670000E94390D87E019928A95E9F7DF91CF9181
:1036800008950F931F93CF93DF938C01EB018D81EE
:1036900081FD11C082608D838B810E949D0C8C8185
:1036A0000E94890C0E94390DF80142815381608586
:1036B0007185CE0174DF10920F03109210038D817B
:1036C00080FD03C0BE01C801C3DFDF91CF911F9110
:1036D0000F91089560E069CFCF93DF93EC018A8169
:1036E000823041F4FB01828193810E94F4038D8139
:1036F00082608D83DF91CF910895FB01808191815C
:103700000C94F403FC018281813031F4FB0180814F
:1037100091810C94080408958230E9F7FB018281BD
:103720009381F7CFEF92FF920F931F93CF938C016A
:10373000FB01C581C11108C0C0E08C2FCF911F9142
:103740000F91FF90EF90089580910F0390911003D7
:10375000009791F38017910779F390E00E94BF03DF
:103760007C0180910F03B6DFFC01892B29F3858151
:103770008460858300831183BF01C70182DF0E94BB
:10378000AB0CDBCFA0E0B0E0E8ECFBE10C9443290C
:103790008C016B01975509F043C0C02FD0E00E9407
:1037A000BC03C817D90730F080E0CDB7DEB7E8E03A
:1037B0000C945F29CE010E94BF037C01F601658154
:1037C000802FF3DEEC01892B79F3F60185819D8151
:1037D00080FB90F99D83811529F108D48093F8022C
:1037E0009093F9028A818F5F8A830E94860C8B8373
:1037F0000E949A0C9B81982B9B830E94AE0C8C8319
:10380000F7014081518160857185CE01C8DE8D81CF
:1038100081FF02C000E010E000930F03109310033B
:1038200081E0C3CFF7014681578160857185CE0164
:10383000B6DE8D8181FFF4CFBE01C70109DF809123
:103840000F03909110038017910751F710920F0307
:1038500010921003E5CFA7E0B0E0E1E3FCE10C94A7
:10386000472980910F0390911003892B49F1809192
:10387000F8029091F90239D38C01BE016F5F7F4F3E
:10388000FB0187E011928A95E9F780910F039091EF
:1038900010030E9470038017910790F480910F032A
:1038A00090E00E94BF038C0180910F0313DF00970B
:1038B00039F0FC01258122FD03C0BC01C801E1DE15
:1038C0002796E4E00C9463298093160390931703E2
:1038D0000895089508959ED2982F81E0913009F0BF
:1038E00080E008950E94DD13811103C080911103CF
:1038F0000895E0911603F0911703309739F0019085
:10390000F081E02D309711F00995089580E0089539
:10391000EF92FF920F931F93CF93DF93EC01E0910F
:103920001603F09117033097F1F10280F381E02D37
:103930003097C9F109958091C20282FF34C080FF9F
:103940000DC088811F928F938CE093E09F938F939B
:103950000E9467030F900F900F900F907E0186E0FA
:10396000E80EF11C06E013E08091C20280FF0BC05C
:103970008A811F928F931F930F930E9467030F906A
:103980000F900F900F902196CE15DF0569F780916B
:10399000C20280FF08C084E093E09F938F930E944F
:1039A00067030F900F90CDB7DEB7E6E00C94612966
:1039B000EF92FF920F931F93CF93DF93EC01E0916F
:1039C0001603F0911703309709F444C08481958160
:1039D000892B09F43FC086E088830480F581E02DBF
:1039E000CE0109958091C20282FF34C080FF0DC0D4
:1039F00089811F928F938FEE92E09F938F930E9405
:103A000067030F900F900F900F907E018EE1E80EEC
:103A1000F11C09EE12E08091C20280FF0BC08A8186
:103A20001F928F931F930F930E9467030F900F9025
:103A30000F900F902196CE15DF0569F78091C20295
:103A400080FF08C087EE92E09F938F930E946703E8
:103A50000F900F90CDB7DEB7E6E00C946129E091AE
:103A60001603F0911703309759F026813781232BE5
:103A700039F022E0DC012C930680F781E02D0995D6
:103A80000895A3E0B0E0E7E4FDE10C94492920911A
:103A900014033091150328173907B1F080931403EC
:103AA00090931503E0911603F0911703309761F09E
:103AB0000084F185E02D309739F023E029838A8353
:103AC0009B83CE01019609952396E2E00C9465292B
:103AD000A3E0B0E0EEE6FDE10C9449292091120349
:103AE0003091130328173907B1F080931203909394
:103AF0001303E0911603F0911703309761F00084EF
:103B0000F185E02D309739F024E029838A839B8367
:103B1000CE01019609952396E2E00C946529CF9396
:103B2000DF93C0911E01D0911F01D5DE811521F0D8
:103B30008091380387FD11C09E012E5F3F4F96E0B4
:103B400080E09150F90140812F5F3F4F41118F5F1D
:103B50009111F7CFDF91CF91089520911C01309101
:103B60001D012E5F3F4F9EE1EBCFCF93C82F8111F8
:103B700002C080E02EC0AFDE811521F080913803B5
:103B800087FD0FC080911E0190911F01FC013296AC
:103B9000089620812C17F9F03196E817F907C9F734
:103BA000E8CF8C2F869586958695C03F10F7E091DB
:103BB0001C01F0911D01E80FF11D228130E0C7705A
:103BC00081E001C0880FCA95EAF7282381E0232B02
:103BD00081F2CF91089581E0FCCF9C01FC013296E7
:103BE00080E09FEF4081461759F031969F3F19F4CE
:103BF000411101C0982F8F5F8630A1F79F3F09F4D4
:103C00000895290F311D97FD3A95F90162830895B2
:103C1000FC01329608962191261302C0DF011E9204
:103C2000E817F907C1F70895262F269526952695BA
:103C3000603F68F4820F911DFC01677021E001C0B4
:103C4000220F6A95EAF78281822B82830895809100
:103C5000C20280FF0CC01F926F9383E493E09F9396
:103C60008F930E9467030F900F900F900F9008950D
:103C7000262F269526952695603F70F4820F911D7C
:103C8000FC019DEF61FD97EF60FF959562FD9295B8
:103C900082818923828308958091C20280FF0CC0B3
:103CA0001F926F9385E293E09F938F930E94670327
:103CB0000F900F900F900F900895CF93C82F0BDEA9
:103CC0006C2F811559F08091380387FF07C08091D0
:103CD0001C0190911D01A8DFCF91089580911E01D4
:103CE00090911F017ADFF8CFCF93C82FF4DD6C2FAE
:103CF000811559F08091380387FF07C080911C011E
:103D000090911D01B5DFCF91089580911E01909192
:103D10001F017EDFF8CFDFDD811571F08091380360
:103D200087FF0AC0E0911C01F0911D0132968EE1DF
:103D300011928A95E9F70895E0911E01F0911F0113
:103D4000329686E0F5CFDC01FB0111969C9111972C
:103D50008181981322C012968C911297811519F0C7
:103D6000928189131AC013968C911397811519F0BB
:103D70009381891312C015968C911597811519F0AE
:103D8000958189130AC014969C91911521F081E0C8
:103D90002481291303C080E001C081E0817008956F
:103DA0000895FECF08958F5F80934E0160914B017F
:103DB00070914C0180914D0190914E01F2CF83E0C2
:103DC00080934E0160914B0170914C0180914D01A7
:103DD00090914E01E6CFE7CF089581E080934E01A8
:103DE00060914B0170914C0180914D0190914E0179
:103DF000D8CFF3CF089591E0811101C090E0909366
:103E00004D0160914B0170914C0180914D01909159
:103E10004E01C7CF80914D01089580934C01609170
:103E20004B0170914C0180914D0190914E01B9CFA1
:103E300080914C01089580934B0160914B017091EA
:103E40004C0180914D0190914E01ABCF80914B017F
:103E5000089508950895FECF089508950895F9CF1F
:103E600008950F931F93CF93DF93F7DF0E943A13C8
:103E7000F5DF08E113E0C0E0D0E08C2F0E94B6111E
:103E8000F80181938F0191E0811101C090E0D92B5D
:103E9000CF5FCA3091F78D2FDF91CF911F910F9196
:103EA0000895E82FF0E0E85EFC4F808190E021E08B
:103EB00030E002C0220F331F6A95E2F7282339232E
:103EC00081E0232B09F480E0089541110DC0E82F13
:103ED000F0E0E85EFC4F21E001C0220F6A95EAF7AE
:103EE00020958081282320830895CF93DF93EC01D0
:103EF0007DD08C1B9D0BDF91CF910895EF92FF92A7
:103F00000F931F937B018C017DD09701A801621B49
:103F1000730B840B950B1F910F91FF90EF900895F9
:103F200085B7806885BF85B7806885BF08951F9273
:103F30001FB61F9211248F939F93AF93BF938091CD
:103F40002203811113C08091540390915503A091D5
:103F50005603B09157034196A11DB11D80935403A0
:103F600090935503A0935603B0935703BF91AF911D
:103F70009F918F911F901FBE1F90189580915C0399
:103F8000843031F10E9412051092220388E190E002
:103F900020E40FB6F894A895809360000FBE20939C
:103FA000600083B7817F846083BF83B7816083BFF4
:103FB0007894889583B78E7F83BF0FB6F894A895C1
:103FC00080916000886180936000109260000FBE55
:103FD00008950E9452080C94160582E084BD93E077
:103FE00095BD9AEF97BD80936E0008952FB7F89412
:103FF0008091540390915503A0915603B0915703BB
:104000002FBF08952FB7F894609154037091550312
:1040100080915603909157032FBF089578941F9273
:104020001FB61F9211248F939F93AF93BF938091DC
:10403000540390915503A0915603B09157030196F4
:10404000A11DB11D8093540390935503A093560373
:10405000B0935703BF91AF919F918F911F901FBE57
:104060001F90189587E797E78093000890930108C1
:1040700088E19AE00FB6F894A895809360000FBE8F
:1040800090936000FFCF88E19AE00FB6F894A8956E
:10409000809360000FBE90936000FFCF8EE14A9B3B
:1040A00002C08150E1F74A9BFECF08955A9880E202
:1040B0008A95F1F75A9A0895FC018BE08A95F1F7F9
:1040C00028E080E090E031E040E14A95F1F7880F88
:1040D0004A9B02C08160932742E04A95F1F70000B5
:1040E00040E14A95F1F7215079F720E12A95F1F75F
:1040F00029B132E03A95F1F7000030E13A95F1F755
:1041000031E022FD93272081920F90830895A1E052
:10411000B0E0EDE8F0E20C94452919828C017C01B5
:10412000E60EF11CBBDFCE010196C6DFF8018193DC
:104130008F01EE15FF05B1F781E09981911180E0C3
:104140002196E6E00C946129529A5A9A0895529861
:104150005A9AEA9AE9E6F0E080818F7C808308959C
:104160006150770B91E001C0990F6A95EAF7692FCA
:1041700090E021E0611108C0911591F05A9A80E217
:104180008A95F1F75A980895362F382339F05A9ABC
:10419000922730E23A95F1F76695ECCF5A98F9CF2D
:1041A0005A98EDCFFF920F931F93CF93DF93EC01BB
:1041B0008C01060F111D8991F82E78DF68E08F2D94
:1041C000CFDFC017D107B9F7CDB7DEB7E5E00C9464
:1041D00062291F920F920FB60F9211240F931F9313
:1041E0002F933F934F935F936F937F938F939F93FF
:1041F000AF93BF93EF93FF93CF93DF930F92CDB71E
:10420000DEB719824BDFCE01019656DF082F0695E7
:1042100006950695282F22952570902F9570920F60
:10422000292F237096959695920F982797708981DC
:10423000892B09F055C0043008F052C080E18A95FE
:10424000F1F75A9A529A82E08A95F1F700C05A988B
:1042500088E0089F80011124D801A55DBE4F169605
:10426000ED91FD911897309791F06091E90170916F
:10427000EA0114962D913D91260F371F15978D91C8
:104280009D91680F791F4C9113978C910995F801B6
:10429000E55DFE4F6381611549F02091E9013091A0
:1042A000EA0184819581820F931F7CDFFFDE80E12C
:1042B0008A95F1F75A9852985A9A80E18A95F1F7BF
:1042C000F801E55DFE4F6081611549F02091E9013B
:1042D0003091EA0181819281820F931F18DFDEDE27
:1042E0000F90DF91CF91FF91EF91BF91AF919F918F
:1042F0008F917F916F915F914F913F912F911F917E
:104300000F910F900FBE0F901F9018950F931F9352
:10431000CF93DF93EC0104970CF05EC0F894529AAF
:104320005A9885E08A95F1F700009C2F9695957034
:104330008C2F8570980F892F837096959695292FCD
:1043400093E0CC0FDD1F9A95E1F7280F822F8C2B7D
:10435000082FACDE00C068E0802F02DF80E18A9584
:10436000F1F752985A9A4A9B30C087E090E04A99F8
:104370002EC0FE01E55DFE4F6381611559F020916D
:10438000E9013091EA0184819581820F931FBFDE9C
:104390008115F9F083DE80E28A95F1F75A98529AF6
:1043A00080E18A95F1F7C55DDE4F6881611549F0BE
:1043B0002091E9013091EA0189819A81820F931F4E
:1043C000F1DE74DE789481E008C000C0CCCF0197A4
:1043D00049F4529A5A9A789480E0DF91CF911F91D4
:1043E0000F91089500C0C3CF9B01BA0190915C0367
:1043F0009430D9F48F708093E9009FEF8091E800AA
:1044000085FD06C085ED8A95F1F700009150B1F762
:104410008091E80085FF09C040E050E0C901A0D2CA
:104420008091E8008E778093E800089543E050E0A3
:10443000BC0182E0D9CF46E050E0BC0182E0D4CF9D
:1044400040E250E0BC0182E0CFCFCF93DF93EC019C
:10445000E1DC48E050E0BE0181E0C6DF88E0FE011B
:10446000A6E2B3E001900D928A95E1F7DF91CF913A
:104470000895089587E893E09F938F930E946703C0
:1044800080915B030F900F90811107C0F7D347D441
:104490008091E20084608093E200089583E893E0D5
:1044A0009F938F930E94670310925B030F900F906E
:1044B00008958FE793E09F938F930E9467038DDCAD
:1044C00081E099DC0F900F900895A0E0B0E0EAE65B
:1044D000F2E2DFC68BE793E09F938F930E9467031E
:1044E0006091580381E0611101C080E068DC0F90A9
:1044F0000F90E2E0EAC6A0E0B0E0E0E8F2E2C9C670
:1045000087E793E09F938F930E94670390915C03EA
:1045100081E0943009F080E0609158035CDC0F90FA
:104520000F90E2E0D2C6209124032F5F822F62E336
:104530007BD6911519F0209324030895109224033B
:10454000809125038115E9F080915C038430B9F4F2
:104550009091E9008091EC009F7080FB882787F99B
:10456000892B93E09093E9009091EB0090FF04C0B9
:104570009091EE0097FD08C08F708093E900109233
:10458000250308951092F1009091E80095FDFACF6F
:104590009091E80090FFF0CF9091E8009E77909383
:1045A000E800EACF42E061EC81E0E4D242E261EC73
:1045B00082E0E0D242E261EC83E0DCD290915C03E5
:1045C00081E0943009F080E060915803ECCB809159
:1045D0005E03893081F148F4823009F496C083305B
:1045E00009F457C0813041F008958A3009F480C041
:1045F0008B3009F468C0089580915D03813A09F019
:1046000047C08091E800877F8093E8008091610334
:1046100090916203892B59F060E080E090E070E0B7
:10462000ECD18091E8008B778093E800089568E0F2
:1046300086E293E0F4CF80915D03813249F5809169
:10464000610390916203029718F58091E800877FDB
:104650008093E8008091E80082FF16C02091F3006B
:104660008091F200922F029731F48091F100813015
:1046700011F0863019F48091F100CFDB8091E800D1
:104680008B778093E800AAC280915C038111E2CF0E
:10469000089580915D03813AD9F7809161039091EB
:1046A0006203892BA9F78091E800877F8093E80057
:1046B0008091E80080FFFCCFADDB8093F10080911A
:1046C000E8008E77DECF80915D03813209F780911B
:1046D000610390916203892BD9F68091E800877F6E
:1046E0008093E8007BD280915F0385DB0C945208B5
:1046F00080915D03813261F68091E800877F80932D
:10470000E8006CD28091600396CB80915D03813A82
:1047100009F0BECF8091E800877F8093E800809108
:10472000E80080FFFCCF92DBC8CF9FB7F8941092CF
:1047300025039FBF90915C03943009F047C02091FE
:10474000E9009091EC002F7090FB992797F9922B3C
:1047500023E02093E9002091EB0020FF34C020915A
:10476000EE0027FF30C020912303211521F0209176
:10477000E80025FF28C01092230326E03091E800CE
:1047800035FF14C08093F1008091E80085FD27C0BB
:104790008091E80080FFFCCF8091E8008E778093C5
:1047A000E8009F709093E90080E0089530915C03E9
:1047B000343049F43091EB0035FD05C0215041F40F
:1047C00081E0809323039F709093E9008FEF089519
:1047D000EFE9FFE03197F1F700C00000CFCF8FB7CE
:1047E000F89421E0209325038FBFDBCF84B7877F28
:1047F00084BF0FB6F894A89580916000886180937B
:104800006000109260000FBE80E890E00FB6F89450
:1048100080936100909361000FBEEBCA2FD27FD2CC
:10482000E2EEF0E08081846080837894DAC48FE4E3
:1048300091E04AC880915C03853089F48091C2027E
:1048400080FF08C081E693E09F938F930E946703E7
:104850000F900F9080915C03853011F0BACB0895D2
:104860008DDBFFDA8115B1F380915A03811591F345
:1048700061D00E945208EECF08959A0140916303DF
:104880005091640300C0492F50E043305105D1F0EE
:1048900078F44130510509F448C04230510571F4B3
:1048A00084E590E043ED53E0F9014083518308959E
:1048B00041325105E9F04232510539F180E090E092
:1048C00040E0F2CF482F50E0813061F04230510596
:1048D00061F0EFECF3E04115510581F7849190E030
:1048E000AF01E2CFE3EAF3E0F9CFEBE8F3E0F6CF94
:1048F0006330710518F7660F771FFB01EC50FE4F10
:104900004081518189E090E0CFCF63307105B0F6EE
:10491000FB01EE0FFF1FE251FE4F408151816551B7
:104920007E4FFB01808190E0BFCF82E190E047E2C3
:1049300054E0BACF80E189BD82E189BD09B400FEAF
:10494000FDCF8091D8008F7D8093D8008091E000CA
:1049500082608093E0008091E00081FDFCCF0895AB
:10496000AF92BF92CF92DF92FF920F931F93CF939C
:10497000DF936C01EB018A0150D1F82E811123C025
:104980000115110539F0F80180819181C81BD90BFF
:10499000C80ED91EA12CB12C2097A9F08091E80057
:1049A00085FD21C08091E8008E778093E800011595
:1049B0001105A1F0F801808191818A0D9B1D8083F2
:1049C000918385E0F82E8F2DDF91CF911F910F916C
:1049D000FF90DF90CF90BF90AF9008951ED18115CA
:1049E000E9F2F82EF0CFF60181916F018093F1008A
:1049F00021978FEFA81AB80ACFCFFC01209163034B
:104A0000309164032617370720F06115710569F0AE
:104A10009B0190E02115310571F491110CC080913A
:104A2000E80082FF38C080E008959091E8009E770A
:104A30009093E800EDCF80915C038115C1F1853042
:104A4000C1F18091E80083FD30C08091E80082FDD3
:104A5000E6CF8091E80080FFDDCF8091F3004091A8
:104A6000F200582F2115310519F04830510558F042
:104A700091E04830510509F090E04091E8004E7710
:104A80004093E800C7CF81918093F1002150310914
:104A90004F5F5F4FE7CF80915C03811541F0853018
:104AA00041F08091E80083FFBACF81E0089582E071
:104AB000089583E00895FC0120916303309164031D
:104AC0002617370720F06115710569F09B0190E00A
:104AD0002115310571F491110CC08091E80082FF1D
:104AE00039C080E008958091E8008E778093E800D7
:104AF000EDCF80915C038115C9F18530C9F18091BA
:104B0000E80083FD31C08091E80082FDE6CF80910E
:104B1000E80080FFDDCF8091F3004091F200582F34
:104B20002115310519F04830510558F091E0483011
:104B3000510509F090E08091E8008E778093E800BD
:104B4000C7CF84918093F1003196215031094F5F96
:104B50005F4FE6CF80915C03811541F0853041F0D5
:104B60008091E80083FFB9CF81E0089582E0089545
:104B700083E00895982F973028F08F708093E90094
:104B800081E008959093E900242F762F50E0981744
:104B900031F07091EC002091ED005091F00021FD7A
:104BA00002C09F5FE8CF3091EB003E7F3093EB0077
:104BB0003091ED003D7F3093ED003091EB0031609E
:104BC0003093EB007093EC002093ED005093F000D5
:104BD0002091EE0027FDE5CF80E0089580915D03F0
:104BE00087FF13C08091E80082FF06C08091E80033
:104BF0008B778093E800089580915C038111F2CF58
:104C0000089580915C038115D9F38091E80080FFBD
:104C1000F8CF8091E8008E77ECCF2091E4003091BE
:104C2000E50095E6A9012091EC00822F817020FF1C
:104C300006C08091E80080FF06C080E008952091C2
:104C4000E80022FD1AC080915C03811589F085304F
:104C500089F08091EB0085FD0FC02091E400309138
:104C6000E50042175307F9F29150E1F684E0089508
:104C700082E0089583E0089581E008955FD066D0D2
:104C8000E0EEF0E0808181608083E8ED80818F77C5
:104C9000808319BCA7EDB0E08C918E7F8C938081CE
:104CA0008F7E808310925B030895CF93DF9346D06D
:104CB0004DD0C8EDD0E088818F7788838881806867
:104CC000888388818F7D888319BC10925C03109241
:104CD000580310925A0310925903E0EEF0E08081DD
:104CE0008B7F808388818160888342E060E080E000
:104CF00041DFE1EEF0E080818E7F8083E2EE808113
:104D000081608083808188608083E0EE80818E7FF7
:104D10008083888180618883DF91CF910895E8ED59
:104D2000F0E080818F7E8083E7ED808181608083E9
:104D300084E082BF81E080935B03B7CFE8EDF0E0D1
:104D400080818E7F80831092E20008951092DA00B5
:104D50001092E10008951F920F920FB60F92112446
:104D60002F933F934F935F936F937F938F939F9373
:104D7000AF93BF93EF93FF938091E10082FF0AC04E
:104D80008091E20082FF06C08091E1008B7F8093DA
:104D9000E100C9DB8091DA0080FF18C08091D80063
:104DA00080FF14C08091DA008E7F8093DA008091BA
:104DB000D90080FF8FC080E189BD82E189BD09B43F
:104DC00000FEFDCF81E080935C0354DB8091E10025
:104DD00080FF18C08091E20080FF14C08091E20043
:104DE0008E7F8093E2008091E20080618093E200F8
:104DF0008091D80080628093D80019BC85E08093B0
:104E00005C0363DB8091E10084FF28C08091E200B5
:104E100084FF24C080E189BD82E189BD09B400FE20
:104E2000FDCF8091D8008F7D8093D8008091E100E4
:104E30008F7E8093E1008091E2008F7E8093E2007C
:104E40008091E20081608093E20080915803811597
:104E500009F445C084E080935C034DDB8091E10060
:104E600083FF27C08091E20083FF23C08091E1008F
:104E7000877F8093E10082E080935C031092580367
:104E80008091E1008E7F8093E1008091E2008E7F2F
:104E90008093E2008091E20080618093E20042E032
:104EA00060E080E067DE8091F00088608093F00031
:104EB00000DBFF91EF91BF91AF919F918F917F9117
:104EC0006F915F914F913F912F910F900FBE0F9077
:104ED0001F90189519BC10925C03E0DA77CF80918F
:104EE000E30087FF02C083E0B6CF81E0B4CF1F921A
:104EF0000F920FB60F9211241F932F933F934F934E
:104F00005F936F937F938F939F93AF93BF93CF9351
:104F1000DF93EF93FF93E9EEF0E080811091EC00D6
:104F20008F7010FB112717F9182B1082C0EFD0E0FB
:104F30008881877F888378941CD0E9EEF0E0108226
:104F40008881886088831F701083FF91EF91DF91C3
:104F5000CF91BF91AF919F918F917F916F915F9111
:104F60004F913F912F911F910F900FBE0F901F9067
:104F70001895AAE2B0E0EEEBF7E28AC18DE593E086
:104F8000FC0101962091F100208323E085369207F1
:104F9000B9F71DDB8091E80083FF37C080915D0386
:104FA00090915E039A3088F5E92FF0E0E15EF54DCF
:104FB0005AC1803889F0823841F5809161038F7041
:104FC000873018F58093E9008091EB0085FB8827F6
:104FD00080F91092E90006C080915A03880F9091E1
:104FE0005903892B9091E800977F9093E800809374
:104FF000F1001092F1008091E8008E7722C08111BB
:1050000015C080915F03813001F18091E80083FF3A
:105010000AC08091E800877F8093E8008091EB00D0
:1050200080628093EB00AA96E3E04EC1823069F77C
:1050300080915F03811579F01092E9008091E8007A
:10504000877F8093E800CADDE0CF933009F080E0ED
:1050500080935A03F1CF809161038F70282F2150E4
:10506000263098F68093E9002091EB0020FFE4CFF2
:10507000933031F48091EB0080628093EB00DCCFC1
:105080009091EB0090619093EB0021E001C0220F22
:105090008A95EAF72093EA001092EA008091EB00EB
:1050A0008860EBCF8111B1CF80915F038F77182F8C
:1050B0008091E3008078812B8093E3008091E80069
:1050C000877F8093E8008ADD8091E80080FFFCCF35
:1050D0008091E30080688093E30083E0111101C0B8
:1050E00082E080935C0391CF8058823008F08DCFAE
:1050F00080915F03909160038C3D23E0920789F5D6
:1051000083E08A838AE289834FB7F894DE0113969D
:1051100020E03EE051E2E32FF0E05093570084910D
:1051200020FF03C082958F703F5F8F708A30B8F088
:10513000895C8D931D922F5F243169F74FBF809159
:10514000E800877F8093E8006AE270E0CE01019674
:1051500054DC8091E8008B778093E80056CF805D27
:10516000E8CF6091610370916203AE014F5F5F4FC2
:1051700084DBBC01892B09F448CF9091E800977F2C
:105180009093E80089819A8196DCE3CF803809F01A
:105190003CCF8091E800877F8093E800809158039E
:1051A0008093F10028CF811130CF90915F0392302E
:1051B00008F02BCF8091E800877F8093E8009093E0
:1051C00058030CDD80915803811529F084E0809309
:1051D0005C03E8D91ACF8091E30087FDF7CF81E027
:1051E000F6CFCF9380915C03811591F08091E90017
:1051F000C091EC008F70C0FBCC27C7F9C82B109270
:10520000E9008091E80083FDB4DECF70C093E9002F
:10521000CF91089533DD10925C0308958091E300EF
:1052200087FB882780F90895992778E0880F991FD0
:10523000961708F0961B881F7A95C9F780950895F0
:1052400097FB072E16F4009406D077FD08D048D0BF
:1052500007FC05D03EF4909581959F4F0895709579
:1052600061957F4F0895EE0FFF1F0590F491E02D9B
:1052700009942F923F924F925F926F927F928F92FA
:105280009F92AF92BF92CF92DF92EF92FF920F93D5
:105290001F93CF93DF93CDB7DEB7CA1BDB0B0FB6DF
:1052A000F894DEBF0FBECDBF09942A88398848889C
:1052B0005F846E847D848C849B84AA84B984C88432
:1052C000DF80EE80FD800C811B81AA81B981CE0F29
:1052D000D11D0FB6F894DEBF0FBECDBFED0108950E
:1052E000AA1BBB1B51E107C0AA1FBB1FA617B7070C
:1052F00010F0A61BB70B881F991F5A95A9F7809528
:105300009095BC01CD010895FB01DC0104C08D9195
:105310000190801921F441505040C8F7881B990B27
:105320000895FB01DC0102C001900D9241505040F4
:10533000D8F70895F999FECF92BD81BDF89A9927C3
:1053400080B50895A8E1B0E042E050E020C0262FEB
:10535000F999FECF92BD81BDF89A019700B402166B
:1053600039F01FBA20BD0FB6F894FA9AF99A0FBE19
:1053700008950396272FECDFEADF252FE9DF242F9E
:10538000E7CF0196272FE4DFE2CFDC01CB01FC0160
:10539000F999FECF06C0F2BDE1BDF89A319600B48E
:1053A0000D9241505040B8F70895F894FFCF7D0614
:1053B0007D06B406B4060B072707A506A5062B072E
:1053C0009D07AA07AA07B4162317BC1686168A16C5
:1053D000C0168E16C416D0169A161C179E16D41612
:1053E000A216D816FD16A616DC160417AC16E21681
:1053F000EA169216C8169616CC16B016E616F416CD
:105400000D171A178016B8162A17C317C817CA1708
:10541000CF17DF17DF17DF17DF17DF17DF17DF17EC
:10542000DF17D117D517D817DD17EC17F217F617B6
:10543000AA1AB01A9B1AA41AB61ABC1AC21AD927E9
:10544000FF270528FF270528522874280528C62885
:02545000D3285F
:105452006C1B7D1B821B000018016C1B7D1B821BB9
:10546200000014011E00290014002B008E02AE025F
:10547200F4F5F6F731946697C63401000000010096
:10548200000000000000050100000004060000000A
:10549200000000280850011E0A1401000001001833
:1054A2001F252220221B221622E200E900EA00B573
:1054B20000B600B700CD008301CC008A01920194AE
:1054C200012102230224022502260227022A02B314
:1054D20000B4006F0070009F01CB019F02A002E2A6
:1054E20000E900EA00B500B600B700CD008301CCA8
:1054F200008A01920194012102230224022502263C
:105502000227022A02B300B4006F0070009F01CB91
:10551200019F02A002946697C63400F4F5F6F731B3
:1055220000736C6176655F6D61747269780073797E
:105532006E635F74696D657200CC0244B615040532
:0A5542004E043904E503FE031704CC
:00000001FF
