:1000000007C4000022C4000020C400001EC4000079
:100010001CC400001AC4000018C4000016C400006C
:1000200014C4000012C400000C946B230C943724F9
:100030000C94911D0AC4000008C4000006C400000E
:1000400004C4000002C4000000C40000FEC300009D
:10005000FCC300000C94081EF8C30000F6C30000A7
:10006000F4C30000F2C30000F0C30000EEC30000C0
:10007000ECC30000EAC30000E8C30000E6C30000D0
:10008000E4C30000E2C30000E0C30000DEC30000E0
:10009000DCC30000DAC30000D8C30000D6C30000F0
:1000A000D4C30000D2C30000D0C30000746F20731B
:1000B000776974636800507265737320656E636F4F
:1000C00064657200004C617965723A2000A800AC4A
:1000D00000AB00AE00000000000000000000007C4B
:1000E000007D007B002700000000000000000000F1
:1000F000000000000000000000000000005F006041
:100100000061005C005D005E0059005A005B006207
:10011000006300580000AE00AF00DA1281FFD9F191
:10012000DB20A4A62EAF00A0C0D30000A1C8D3003E
:1001300000AED580A83F408D14200007087F080737
:10014000003E6B4F6B3E00C194B094C1001C3E7CDE
:100150003E1C00183C7E3C18001C577D571C001CA0
:100160005E7F5E1C0000183C180000FFE7C3E7FF3D
:1001700000001824180000FFE7DBE7FF0030483AD2
:10018000060E00262979292600407F050507004034
:100190007F05253F005A3CE73C5A007F3E1C1C0867
:1001A00000081C1C3E7F0014227F2214005F5F00A9
:1001B0005F5F0006097F017F00006689956A006025
:1001C000606060600094A2FFA2940008047E0408AE
:1001D0000010207E20100008082A1C0800081C2A95
:1001E0000808001E10101010000C1E0C1E0C003011
:1001F000383E383000060E3E0E06000000000000BB
:100200000000005F000000000700070000147F14DA
:100210007F1400242A7F2A12002313086462003608
:100220004956205000000807030000001C2241002E
:10023000000041221C00002A1C7F1C2A0008083EE6
:100240000808000080703000000808080808000056
:1002500000606000002010080402003E5149453E45
:100260000000427F4000007249494946002141494F
:100270004D33001814127F10002745454539003CC6
:100280004A49493100412111090700364949493697
:1002900000464949291E00000014000000004034B7
:1002A000000000000814224100141414141400006B
:1002B00041221408000201590906003E415D594ED1
:1002C000007C1211127C007F49494936003E4141B1
:1002D0004122007F4141413E007F49494941007F21
:1002E00009090901003E41415173007F0808087F58
:1002F0000000417F4100002040413F01007F081481
:100300002241007F40404040007F021C027F007F6E
:100310000408107F003E4141413E007F0909090663
:10032000003E4151215E007F0919294600264949B6
:1003300049320003017F0103003F4040403F001F5E
:100340002040201F003F4038403F006314081463E2
:10035000000304780403006159494D4300007F41C4
:10036000414100020408102000004141417F000487
:100370000201020400404040404000000307080022
:10038000002054547840007F2844443800384444C6
:10039000442800384444287F00385454541800003E
:1003A000087E09020018A4A49C78007F0804047841
:1003B0000000447D4000002040403D00007F1028A8
:1003C00044000000417F4000007C04780478007CF9
:1003D0000804047800384444443800FC18242418E5
:1003E0000018242418FC007C080404080048545415
:1003F00054240004043F4424003C4040207C001C62
:100400002040201C003C4030403C00442810284440
:10041000004C9090907C004464544C44000008369A
:100420004100000000770000000041360800000293
:1004300001020402003C2623263C000000000000CC
:100440000000008080E0F0F0FC70FCF07CF0FC70BC
:10045000FCF0F0E080800000000000000000008060
:10046000808000000080800000000000808000800C
:10047000800000008080000000000080808080807C
:10048000008080000000000000000000000000006C
:10049000000000000000000000000000000000005C
:1004A000000000000000000000000000000000004C
:1004B00000000000000000000000C0F0F8FC3E1E3C
:1004C00006010000007F4141417F007F4141417FA3
:1004D000000080C0E07E5B4F5BFEC00000C000DC1F
:1004E000D7DEDEDED7DC00C0000000000000000028
:1004F00000000000000000000000000000000000FC
:10050000000000AAAAFFFFFFFFE0DFDF00DFDFE05F
:10051000FFFFFFFFAAAA000000000000003E7FC10D
:10052000C1C17F3E00FFFF0F3C783C0FFFFF00FF83
:10053000FF1C3E77E3C10000000000FFFF191919FE
:1005400000FDFD00FEFC060600FEFC0606FCFC06A7
:1005500006FEFC001E7CE0780C78E07C1E0064F651
:1005600092927EFC00FEFC0606003C7ED2D2DE4C5F
:1005700000000000000000000000030F1F3F3C7857
:1005800070600000007F4141417F007F4141417F19
:1005900000307B7F7830202030787F3B0003000FD5
:1005A0007F0F0F0F7F0F000300000000000000000E
:1005B000000000000000000000000000000000003B
:1005C00000000000000307071F071F071F071F0782
:1005D0001F070703000000000000000000000000EB
:1005E0000001030200000000000000000000000005
:1005F00000000000000000000000000000000000FB
:1006000000000000000000000000000000000000EA
:1006100000000000000000000000000000000000DA
:1006200000000000000000000000000000000000CA
:1006300000000000000000000000000000000000BA
:1006400000000000000000000000000000000000AA
:10065000000000000000000000000000000000009A
:10066000000000000000000000000000000000008A
:1006700000000000000000000000001C0362006594
:10068000006E00690061007200690073006D006116
:1006900000630072006F0000002A0343006F006EC9
:1006A000007300740061006E00740069006E0065E4
:1006B000002000420065006E006900610072006960
:1006C00000730000000403090409023B000201005A
:1006D000A0FA090400000103010100092111010031
:1006E00001224400070581030800010904010001FB
:1006F0000300000009211101000122B60007058254
:10070000032000011201000200000008EDFE0000BD
:1007100000010102000105010902A1018502090190
:10072000A100050919012908150025019508750181
:1007300081020501093009311581257F950275086F
:10074000810609381581257F950175088106050CFC
:100750000A38021581257F950175088106C0C005FC
:10076000010980A101850319012AB700150126B7E7
:1007700000950175108100C0050C0901A1018504D7
:1007800019012AA002150126A00295017510810009
:10079000C005010906A1018506050719E029E7152D
:1007A0000025019508750181020507190029EF153B
:1007B00000250195F07501810205081901290595AB
:1007C0000575019102950175039101C005010906A6
:1007D000A101050719E029E7150025019508750114
:1007E00081029501750881010507190029FF15008F
:1007F00026FF0095067508810005081901290515D1
:10080000002501950575019102950175039101C0BF
:1008100011241FBECFEFDAE0DEBFCDBF11E0A0E0B4
:10082000B1E0E0ECFDE402C005900D92A63CB107FA
:10083000D9F727E0A6ECB1E001C01D92A632B207BD
:10084000E1F70E94E6120C948C26DACBCF93C62FE8
:1008500081110BC08091D8019091D90171D1813063
:10086000A9F0823029F0811571F080E0CF910895D0
:10087000C11529F089EA7AD289EA78D2F6CF8AEAD4
:1008800075D28AEAFACFC111F7CFFBCF89EDC1113A
:10089000F4CF8AEDF2CF8091C90190E0019663E038
:1008A00070E00E94EB258093C901ECD48091C901CE
:1008B000F5C4CF938FB1CC2786FFC39586FD05C0C5
:1008C0008091C801811101C0E6DFC093C801CF91BA
:1008D000089586988E9A0895813029F0823031F0FB
:1008E00081E291E0089587E291E008958BE291E042
:1008F000089580E0089560E085EC90E00E9478140F
:100900008091D8019091D9011BD1E6DF60E00E946F
:10091000751460E084EC90E00E94891460E086EB3E
:1009200090E00E94891460E08CEA90E00E948914B3
:1009300080E008958330D0F46430C0F44330B0F4E4
:1009400070E0FB01EE0FFF1FE60FF71FE40FF11D34
:100950009CE0899FE00DF11D1124EE0FFF1FE35372
:10096000FF4F85919591282F822F089521E090E0E7
:10097000FBCFE0CF089581E0089581E00895FBCF9B
:10098000089581E0089581E00895FDCF08950895C8
:100990000895FDCF089508950895A6E0B0E0E3ED31
:1009A000F4E00C94132649835A839E833091CF013F
:1009B00089819A81311117C03E81311589F0211545
:1009C00079F027D5182F682F89819A81FCD4698105
:1009D0007A81812F0E9423102696E3E00C942F2623
:1009E00005D5182FF4CF15D569817A81F3CFFC0195
:1009F000262F408151816281738184819581CDCF81
:100A0000CF93DF93EC0161E0F2DFBE01B6DF811529
:100A100029F061E0CE01EBDFBE01B1DFDF91CF91C4
:100A200008950F931F93CF93DF93EC0160E0DFDF16
:100A30008C01BE01ADDFBE01C801ABDFDF91CF91FC
:100A40001F910F9108950F931F93CF93DF93EC01A4
:100A500061E0CDDF8C01BE0194DF811106C080E032
:100A6000DF91CF911F910F910895BE01C8018DDFD5
:100A70008115A9F3BE01C8010E94E11A811579F31D
:100A8000BE01C8010E945817811549F3BE01C80173
:100A90000E942F17811519F3BE01C8010E9426116B
:100AA0008115E9F2BE01C8010E9438118115B9F221
:100AB000BE01C8010E945211D3CF21E030E002C034
:100AC000220F331F8A95E2F7C901B8C3CF93C82F0D
:100AD00081E090E00C2E02C0880F991F0A94E2F783
:100AE0000E94280E8C2FE9DFCF91089581E00895B0
:100AF00081E00895FBCF0895CF93C82F4ED38C2F5C
:100B0000F7DF8C2FF7DF8FEF94E32CE081509040DC
:100B10002040E1F700C00000CF91089581E0ECDFB4
:100B20000C942C1E80E0E8DF0C943D1E34DF0E9404
:100B3000371D38D00C949B1537D02EDF0C943B1DFD
:100B4000292F30E048E0911102C09C0140E0C9012A
:100B500064E0969587956A95E1F7009711F04C5FF0
:100B60009C01C9019695879596958795009711F0F8
:100B70004E5F9C01C90196958795840F089581E089
:100B800008950895CF93DF93D82FF9DFC82F8115EB
:100B900011F08D2FF6DF8C2FDF91CF9108950895FE
:100BA000F1CF089580E0FCCF0E942F1BF9CFCF93A7
:100BB0000E942F1BC82F8091CA018C1771F0C0931F
:100BC000CA010E94FC1D6093CB017093CC018093FD
:100BD000CD019093CE018C2FE3DFCF910895ADE04E
:100BE000B0E0E5EFF5E00C941426488759876A8752
:100BF0007B878C879D8791111AD71F8286E0FE0123
:100C000038969E012F5F3F4FD90101900D928A9532
:100C1000E1F78D8181110CC029813A814B815C8182
:100C20006D817E818F814ED62D96E2E00C94302628
:100C3000CE010196E5DE8111EFCFF6CFFC012481D4
:100C4000213019F48081918117C40895611521F034
:100C50000E94B4180C9469190E94F418FBCFCF932A
:100C6000C82F811581F08450813A78F48C2F0E942E
:100C7000E31B811521F08C2F0E94801C63D78C2FE1
:100C80000E94691C5FD7CF9108958C2F805E8830B9
:100C900048F481E0C1FD84E0C0FD880FC2FD82956B
:100CA000A7D6F0CF8C2F855A833030F48C2F845206
:100CB000990B0E946F1BE7CFEC2FE85AEB3150F4F1
:100CC000F0E0EE0FFF1FEE5CFE4F808191810E94ED
:100CD000961BD9CF8C2F8D5C8331A8F661E08C2FC9
:100CE000B5DFD1CF811559F1982F9450913A18F46E
:100CF0000E94801C27C7982F905E983050F4982F40
:100D000081E091FD84E090FD880F92FD829576D67A
:100D1000F1CF982F955A933020F480E090E00C9416
:100D20006F1B982F985A9B3120F480E090E00C9430
:100D3000961B982F9D5C933110F460E087CF089547
:100D40001F93CF93DF93182FEB0189DF209731F4A6
:100D5000812FC8DFDF91CF911F9108958FE99FE028
:100D60000197F1F700C000002197F0CF60E570E037
:100D7000893311F060E070E0E3CF811511F038D6CF
:100D8000E1C60895811511F039D6DCC60895A0E0BA
:100D9000B0E0EDECF6E00C940E266C01D62FC72FD8
:100DA000FC011581068102950F7017D6E82E81157A
:100DB000E9F0E12E1115D1F08C2F807F803461F0A5
:100DC0008D2F805E8830E0F08C2F807E803221F481
:100DD000D230B0F00115A1F08091060382FF10C05F
:100DE00082E0D4D6FAD591E08927E82EEC2FE2955F
:100DF000EF70C03C78F5F0E0E257F94D0C94FE2519
:100E0000E12CF4CF0C2F0F70C03110F00295007F51
:100E1000111581F0011549F08D2F805E883010F09A
:100E2000D11105C0802FE4D58DD68D2F40C0802FE5
:100E3000F0D5FACF8D2F56DF011561F08D2F805E32
:100E4000883010F0D11103C0802FD8D502C0802F78
:100E5000E6D578D6E11409F4B3C0BBD580FDB0C0A7
:100E6000F6011582B0D51AD2C60168D1ACD524D20C
:100E7000A7C08C2F8F70F82EC07FC03219F0F2946B
:100E800080EFF822D13038F079F1111509F438C02B
:100E90000115C9F0CACF8091060382FD10C011155B
:100EA00041F0F11419F08F2DA3D54CD680E0D7DE98
:100EB000D1CF80E017DFF11469F28F2DC6CF111565
:100EC00051F0013018F48F2D58DFC4CF09F0C2CF94
:100ED0008F2DC1D5BFCF0111BDCF8F2D53DF8F2DEA
:100EE000C5D58F2DAAD5B6CF111521F0063008F043
:100EF000B1CFE9CF053008F0ADCF8F2D43DFAACFBA
:100F00000115D9F3D93349F48FEF97EE23E08150DF
:100F100090402040E1F700C000008D2FE3DE9ACF23
:100F20008C2F869586958370813060F009F092CF82
:100F30008D2F9C2F9370111102C080E090E00E94D1
:100F4000961B88CF8D2F9C2F9370111102C080E0CB
:100F500090E00E946F1B7ECF612F8D2F77DE7ACFBE
:100F60008C2F8370C1F5111128C04D2F42954695E5
:100F70004770440F440F2D2F2F7030E0042E02C015
:100F8000220F331F0A94E2F780E090E0D4FF09C0FB
:100F90008FE090E002C0880F991F4A95E2F7809594
:100FA0009095C695C695C370822B932BC23079F06D
:100FB000C33079F0C13049F04AD10E942F1BF0DDD7
:100FC000CDB7DEB7E8E00C942A263AD1F6CF46D169
:100FD000F4CF34D1F2CF111559F1C0FFEECF4D2F20
:100FE000429546954770440F440F2D2F2F7030E0E7
:100FF000042E02C0220F331F0A94E2F780E090E033
:10100000D4FF09C08FE090E002C0880F991F4A9575
:10101000E2F780959095C695C695C370822B932B69
:10102000C23061F0C33061F0C13031F06AD1C5CF58
:10103000823008F4C2CFD3CF5DD1BFCF69D1BDCF4D
:101040001AD1BBCFCF70111529F08C2F27D18D2F3E
:1010500094DEB3CF8D2F96DE8C2F2ED1AECFD23F24
:1010600031F168F4D03FC1F0D13F89F0111509F496
:101070003EC0011509F438C08D2FF1DD9ECFD33F5E
:10108000E1F0D43F99F78091060382FD1EC08C2FBA
:101090008F71111511F30FC0111539F0053008F0DB
:1010A0008CCF8C2F8F7118D188CF0630F8CF8C2F32
:1010B0008F711111D2CFF2D080CF111521F08C2F6A
:1010C0008F71E3D07ACFDED078CF111529F063E0AD
:1010D0008C2F8F7144D571CF81E058D5023008F440
:1010E0006CCF82E053D569CF8C2F8F71E4CF01157F
:1010F00071F0D93349F48FEF97EE23E0815090409F
:101100002040E1F700C000008D2FECDD56CF8C2F82
:101110008F71A3CF0F931F93CF93DF93EC0168815F
:1011200079818D81B2D18C01FAD087D0B801CE01FE
:101130002EDEDF91CF911F910F910895CF93DF9312
:10114000EC018C81811581F0CE017DDC81110FC015
:1011500044D4811549F08D81811531F080910603C9
:1011600082FF02C082E012D5DF91CF910895CE01B7
:10117000D1DFCE0156DCF8CF80E090E00E946F1BFB
:1011800080E090E00E94961B52D4DCD40E94821929
:101190000C9469190E94971CEFCF38D4FBCF282FED
:1011A00092959F70963099F060F4925F9F709230A4
:1011B00030F4203FB1F038F481E0283E38F080E090
:1011C00008959A5FF3CF81E0243FC9F7089591E035
:1011D000813F09F090E081E0283E08F080E0892B13
:1011E000089581E00895FC012481211521F080817A
:1011F000918142D1D4CF80E00895A6E0B0E0E3E051
:10120000F9E00C9414262696E2E00C943026A7E030
:10121000B0E0EDE0F9E00C9414262796E2E00C949F
:1012200030260895FECF0895FDCF0895FADFFCDF44
:101230008093DA019093DB0108950895F7CF089524
:101240002091DA013091DB01822B932BEFCF20919B
:10125000DA013091DB0182239323E8CF2091DA0178
:101260003091DB0182279327E1CFDBCF0895FDCFBB
:101270000895D7CF0895FDDFFADF8093D8019093CA
:10128000D901089580E090E0F6CF21E030E002C07F
:10129000220F331F8A95E2F7C901EDCF21E030E03C
:1012A00002C0220F331F8A95E2F78091D8019091F6
:1012B000D901822B932BDFCF21E030E002C0220F37
:1012C000331F8A95E2F7209530958091D80190914F
:1012D000D90182239323CFCF21E030E002C0220F37
:1012E000331F8A95E2F78091D8019091D901822726
:1012F0009327C1CF2091D8013091D901822B932B14
:10130000BACF2091D8013091D90182239323B3CF52
:101310002091D8013091D90182279327ACCF08952D
:10132000CF93C1E061FDC4E060FDCC0F62FDC295CA
:1013300093E0769567959A95E1F7660F771F660FAC
:10134000771F460F571FFA0140E050E090E061918F
:10135000DF019C01042E02C0369527950A94E2F71E
:101360002695220B26272C2326272E934F5F5F4F8F
:101370004430510561F7CF910895A82FA77023E05D
:10138000969587952A95E1F7880F991F880F991FE1
:10139000680F791FFB0140E050E080E0219130E0D0
:1013A0000A2E02C0369527950A94E2F72170042E82
:1013B00001C0220F0A94EAF7822B4F5F5F4F44303F
:1013C000510561F70895E62F943078F4833068F47E
:1013D000292F30E0B901660F771F620F731F680F66
:1013E000711D40ED51E08E2F9BCF0895943078F41D
:1013F000833068F4292F30E0A901440F551F240FD2
:10140000351F60ED71E0820F932F911DB6CF80E004
:101410000895CF92DF92FF920F931F93CF93DF93A4
:101420006C010091D8011091D9018091DA0190915D
:10143000DB01082B192BCFE0D0E081E090E00C2EEF
:1014400002C0880F991F0A94E2F780239123892B09
:1014500061F4219790F7F12C8F2DDF91CF911F919F
:101460000F91FF90DF90CF900895FC2EB6018C2F46
:10147000F5D5019771F3F0CFCF93DF93EC01C9DF7E
:10148000BE01ECD5DF91CF9108951F93CF93DF93E9
:10149000EB019091CF01911531F0CB01EDDFDF91A0
:1014A000CF911F910895811551F0CB01B2DF182F14
:1014B000682FCE0188DFBE01812FD0D5F0CFCB01C0
:1014C00095DF182FF8CF0F931F930091DC018091C7
:1014D000DD01801303C01F910F91089587E0089FDD
:1014E000F0011124E252FE4F20813181428153816B
:1014F0006481758186818BDE0F5F1F4F0770E7CF98
:101500002091160230911702409118025091190251
:1015100060911A0270911B0280911C0278CE80911A
:101520001C02803170F480911B02811551F0E09112
:10153000DC012091DD0130911702409116022E133B
:1015400001C00895BF0187E0E89FF0011124DF0189
:10155000A252BE4F14968C911497811549F11196A1
:101560008C911197831324C08C91841321C01596FC
:101570008C91159781111CC012968D919D91A0910F
:101580001802B09119028A1B9B0B883C910580F4CC
:1015900080911C028F70806180931C02EC51FE4F81
:1015A00080818F708061808386E192E0C7DD8BCF80
:1015B0006F5F7F4FFB01E770C2CFE091DC0190913C
:1015C000DD01E91302C080E008959F0157E0E59F27
:1015D000F0011124E252FE4F5181561306C0508192
:1015E000581303C05581541305C02F5F3F4FF901B5
:1015F000E770E7CF81E008958F929F92AF92BF92FC
:10160000DF92EF92FF920F931F93CF93DF93CDB7AB
:10161000DEB72D970FB6F894DEBF0FBECDBF8C019D
:1016200086E0F801DE01189601900D928A95E1F7A7
:10163000F801F580848196E1892E92E0992E9091AF
:101640001A02911117C0811509F4EFC0F11409F4C1
:101650002EC1C801C8DD811509F429C187E0F80150
:10166000D40101900D928A95E1F7C401E7DA57DFC2
:1016700047DFDBC0E080A280B380D0901B022091C6
:10168000180230911902A501421B530BD11409F421
:10169000CFC0483C510508F09EC0811509F4C5C073
:1016A00090911702918080911C02803108F065C0F2
:1016B000991226C0909116029E1122C0F11057C0B7
:1016C0008F70806180931C021BDF86E192E036DD23
:1016D00080911C02F8018683F12C8F2D2D960FB678
:1016E000F894DEBF0FBECDBFDF91CF911F910F9158
:1016F000FF90EF90DF90BF90AF909F908F900895F4
:10170000F11035C040E0692D8E2D57DF40E0692D86
:101710008E2D53DFF82E8111DFCF88859985ACDEC1
:10172000292F22952F70903450F49F70223078F03A
:10173000911591F0F8019681903170F4CECF2A5F27
:101740002F70223070F0C801F9DCFD2CC6CF911546
:1017500019F0811509F4C1CF805E883008F4BDCF3F
:10176000F2CF803F08F4B9CF815F8330F7CF80910B
:101770001C02816080931C02AFCF991207C0909128
:1017800016029E1103C0F11409F473C0C8012BDDC9
:10179000811509F48CC0F11409F489C080911C02F0
:1017A000803280F0209116023091170229833A830B
:1017B000AB82BC8290911A029D831E828F83CE01E0
:1017C0000196BCDC87E0F801A6E1B2E001900D9241
:1017D0008A95E1F74CCF90911C02903188F44885AE
:1017E00059856A857B858C859D8507DD86E192E03C
:1017F000A5DCF40187E011928A95E9F781DE6CCFD0
:10180000811599F02091170281812813BFCF809113
:1018100016028E11BBCFF110B9CF9683C8018EDCB2
:10182000F40187E011928A95E9F7FF24F39455CFEC
:10183000483C510508F03EC08115B9F3F114B9F1E7
:10184000909117028181981329C0809116028E1100
:1018500025C080911C0280FD18C08031B0F08683C5
:10186000807F803F39F08681982F907F905F8F70C6
:10187000892B8683C80162DC87E0F801A6E1B2E02B
:1018800001900D928A95E1F7F3CE87E0F801A6E189
:10189000B2E001900D928A95E1F7C7CFC801A3DCB1
:1018A000811190CF80911C02816080931C02C8013D
:1018B00045DCBBCF488559856A857B858C859D85B0
:1018C0009CDC97CFAEE0B0E0E8E6FCE00C94132699
:1018D000288739874A875B876C877D878E87CE010B
:1018E00008968ADE6C85811599F0611539F0288596
:1018F00039854A855B857D858E8589DC8091DC0113
:101900009091DD0189133DC02E96E3E00C942F26C3
:1019100087E09E01285F3F4FF90127503109D90127
:1019200001900D928A95E1F7611541F3A091DD01D7
:101930008A2F90E08395877090E0AC012091DC01C4
:101940002417150691F097E09A9FD0011124A25216
:10195000BE4F9E012F5F3F4FF90101900D929A9566
:10196000E1F74093DD01AFDDC9CF17DC1092DD0157
:101970001092DC01E6E1F2E087E011928A95E9F746
:10198000BDCF17E0189FC001112482529E4F34DE54
:10199000811509F4B9CFE091DC011E9FF0011124FB
:1019A000E252FE4F208131814281538164817581F1
:1019B00086812DDC8091DC019091DD01019687709C
:1019C0008093DC019BCF8091450286958695869514
:1019D000089580914502877008959091450297700F
:1019E00081E0911101C080E0089580917102089515
:1019F00090917102982B9093710208958095982F81
:101A0000809171028923809371020895109271026E
:101A1000089590917002982B90937002089580958C
:101A2000982F8091700289238093700208951092FC
:101A3000700208950895FECF089590914602292FCF
:101A4000282329F08095892380934602F4CF0895B6
:101A50000895FECF089590914702292F2823281733
:101A600021F0982B90934702F4CF0895909147026C
:101A7000292F282329F08095892380934702E9CFD5
:101A8000089580914702811521F01092470280E06D
:101A9000E0CF0895CF93C091710280917002C82B5E
:101AA00080914702811529F0C82B0E94BD1B81112E
:101AB000E8DF8C2FCF910895CF93DF93C09102017F
:101AC000D0910301E7DF8883C0910201D091030127
:101AD00048E050E06DE372E0CE010E944426892B7D
:101AE00059F088E0FE01ADE3B2E001900D928A95D5
:101AF000E1F7CE010E943E1BDF91CF910895CF9375
:101B0000DF93C0910001D0910101C4DF8983C091AE
:101B10000001D091010140E250E06DE172E0CE01A0
:101B20000E944426892B59F080E2FE01ADE1B2E02B
:101B300001900D928A95E1F7CE010E944B1BDF9137
:101B4000CF9108950E94281B811529F080910503EB
:101B500087FF01C0D4CFB0CF0895FECF08959091F4
:101B6000060392FF0EC0982F990F990F990F962B8D
:101B70009093450293DB80914502869586958695E4
:101B8000ECCF8CCB1092450280E0E7CF90914502DC
:101B90008095892380934502282F277059F489174F
:101BA00049F09091060392FF05C08695869586952B
:101BB00083DBE8CF08959091060392FB222720F95A
:101BC000281749F080FB92F99093060385E093E093
:101BD00043D082E0DBCF089580910603002482FF8A
:101BE0000394802DE8CF81E0E6CF80E0E4CF80E071
:101BF00090E0BC01BEC380E090E0BC01B4D3F7CF5D
:101C0000A3E0B0E0E6E0FEE00C94142665D370D3C8
:101C10001B82CE01039683D381E090E08093DA01AA
:101C20001092DB0188D3198284E18A83CE01019668
:101C300093D3E1DF2396E2E00C943026E1CF0895C0
:101C40005DC308954AC308955FC308956EC30895A0
:101C500072C3089575C308957FC3089590C308950E
:101C6000A6E0B0E0E6E3FEE00C9412260E94F01D30
:101C70008C0180917202909173028017910779F024
:101C800019821A820E94F01DBC0149815A8180E0AC
:101C900090E00E94EF050093720210937302269663
:101CA000E4E00C942E260E94FC1D60937C0270934D
:101CB0007D0280937E0290937F02609378027093FE
:101CC000790280937A0290937B0208950E94FC1D12
:101CD00060937C0270937D0280937E0290937F02DA
:101CE00060937402709375028093760290937702EA
:101CF000089508950895FDCF08950895FEDFFBCF60
:101D00000C94690408950895FEDFFACF84E291E10E
:101D10006ED4F0DFF3CF81E0089581E00895FBCF2A
:101D20000895089508950895FCDFFCDFFCCF8ADF55
:101D3000811101C083DF80E892E086DF85E093E0D7
:101D400089DF0E942D1782DF79DA8091D801909186
:101D5000D9018DCA0E94E71D34D7B0D3E8DF0E94B5
:101D6000261B0E94CF0580E08AD4CECFA6E0B0E04B
:101D7000ECEBFEE00C940A26D0DFD82E81110CC0CB
:101D80006FDFD12C0E94271B8BD7811509F45BC014
:101D90009DDFF0D6C1D55AC0A0D381E0A82E83E044
:101DA000B82E750110E0F7010081812FF3D21F5F7B
:101DB000143009F445C09FEFE91AF90A081799F39E
:101DC0008091800281FDECD2AADF882E10E0812F65
:101DD000E1D2F82EF50181915F01F81661F18F25AE
:101DE000C82E00E0EE24E3948C2D8E21F1F099248E
:101DF00093948F2D8E2109F4912C811489F0602FFA
:101E0000812F0E945D1D81110BC009831A830E94DE
:101E1000F01DBC0149815A8181E0992D0E94EF0596
:101E2000492D602F812F0E94711D0F5FEE0C033032
:101E3000D9F6F501F2921F5F143049F634DFA2CFD4
:101E40000813BECF9DCF96D6D110A4CF0E94A31960
:101E50000E94D7052696ECE00C9426260F931F933C
:101E6000CF93DF93FDD0EC01D23508F050C0D035D0
:101E700008F0C8C0C03ED10530F5CD3CD10508F012
:101E80009DC0C83AD10578F4C53AD10508F093C091
:101E9000C130D105B1F1CE010497813A910588F1A5
:101EA000C0E0D0E02EC0CE01885A91094B97C0F710
:101EB000C85AD0E0CC0FDD1FC859DE4F0990D88139
:101EC000C02DD4641EC0D034A8F4D03208F0ADC008
:101ED000C83ED105B0F0CE0191509F3108F78D2F4B
:101EE00062D1082F8C2F90E0BBD0D02FDF71C82F8C
:101EF000D92B07C08C2F90E0B3D0DF70C82FD92B1F
:101F0000D06ACE01DF91CF911F910F910895C03813
:101F100082E5D807B8F5C03682E5D80708F056C084
:101F2000C03482E5D807C8F4C03282E5D80708F08B
:101F300047C08C2F8695869520E2829FC001112490
:101F4000C37021E030E002C0220F331FCA95E2F7D0
:101F5000E901C82BD92BDD68D4CF8C2F86958695C7
:101F6000877020E2829FC0011124C37021E030E01D
:101F700002C0220F331FCA95E2F7E901C82BD92B03
:101F8000DC68BFCFC03C82E5D80750F48C2F8F713E
:101F9000C03AD24580F5982F84EF906AEC01B1CF1A
:101FA000CE01805C9245809708F07ACFDC2FDF71FC
:101FB000C0EFD06AA6CFA497D064A3CFD065A1CF3D
:101FC0008C2F8F71D82FC1EFD06A9BCF8C2F869525
:101FD0008695877020E2829FC0011124C37021E0A2
:101FE00030E002C0220F331FCA95E2F7E901C82B87
:101FF000D92BDA6886CFD7D0982F80E09F71EC017B
:10200000D0627FCF8C2F8F71CED053E0CC0FDD1FED
:102010005A95E1F7DF70282F84FF04C090E1899F73
:1020200090011124C22FD0696CCF8D2F8F71BBD03E
:10203000082F8C2F90E014D0302F3F71282F392B90
:102040003062E9015ECF462F743028F4633018F413
:10205000672F0C94B90480E090E00895F4DFFECE81
:10206000803E9105D1F1C8F48133910509F481C016
:1020700048F48932910509F471C08A32910509F456
:102080007FC0089589339105E1F082389105C9F048
:102090008533910509F45DC00895843E9105D1F121
:1020A00048F4823E910531F1833E910541F181EE84
:1020B00090E00895863E9105C1F1873E9105F1F1CA
:1020C000089520910503237009F064C02091060350
:1020D00023FF14C089E290E008952091050320FDBC
:1020E00045C03091060330FF09C024FD24C083EEB3
:1020F00090E008952091050322FDF7CF08952091E7
:10210000050322FD44C03091060330FD43C024FF87
:10211000F5CF11C02091060321FFF0CF8091050378
:1021200084FD09C087EE90E008952091050323FF08
:10213000E5CF24FFF7CF80E090E0089520910503DC
:1021400023FD2BC03091060331FFE1CF84EE90E0F8
:1021500008952091050325FFD1CFBCCF2091050321
:1021600025FD1EC02091060323FFC8CF89E390E020
:1021700008952091050326FFC1CF8AE290E00895DB
:102180002091050326FFBACF81E390E0089582EE07
:1021900090E0089580EE90E0089586EE90E0089536
:1021A00085E390E008959091050392FF10C041E00F
:1021B000282F2471243009F040E031E0282F2871C5
:1021C000283009F030E0431711F02CE0822793FF0C
:1021D00010C041E0282F2471243109F040E031E0A3
:1021E000282F2871283109F030E0431711F02CE036
:1021F00082273091060330FF10C051E0282F217153
:10220000213009F050E041E0282F2871283009F0F2
:1022100040E0541711F029E0822731FF10C041E05F
:10222000282F2171213109F040E031E0282F287159
:10223000283109F030E0431711F029E0822794FF9C
:1022400002C083FD877E089580E00895CF939C01AE
:10225000205E3245C1E02032310538F4FB01C581F2
:10226000C11103C08F710E9466058C2FCF91089514
:102270009C01FB018581811599F02B359CE739077D
:1022800069F02C359CE7390721F02A353C4721F0CD
:102290000895A2DC80E00895A6DCFCCFA6DCFACF8E
:1022A00081E008959C01FB018581811599F0213021
:1022B0009CE7390761F023309CE7390739F0211595
:1022C0003C4749F40E948E0580E00895B9DC0E94E5
:1022D0009205FACF81E00895089580E090E00E9491
:1022E00059269C0181E0233E3E4F09F080E008958D
:1022F00063EE7EEF80E090E00C9478266FEF7FEF46
:1023000080E090E00C947826CF93DF93EC0182E09C
:1023100090E00E9451268883DF91CF910895FC01BF
:10232000608182E090E00C945E2683E090E00E9461
:10233000512690E00895682F83E090E00C945E268B
:10234000CF93DF93EC0184E090E00E9459268883CC
:102350009983DF91CF910895FC016081718184E0C0
:1023600090E00C947826AB01BC018FE090E00C94D7
:102370007026AB01BC0183E190E00C947026682FBD
:102380008EE090E00C945E260895FECF08950C94A4
:1023900059040895E82FF0E0E55FFC4F808108952F
:1023A000089580EA8A95F1F7089500C00895F9CF5D
:1023B0000895F894E82FE295EF70F0E041A18F7056
:1023C00021E001C0220F8A95EAF7922F909594237D
:1023D00091A392A1822F892B82A378940895CF9301
:1023E000DF93C1EAD1E089918F3F09F0E2DF81E01C
:1023F000C53AD807C1F781E3DCDF83E3DADF82E3A4
:10240000D8DFDF91CF910895A0E0B0E0EAE0F2E1FB
:102410000C940E266C01E62EC62FD0E08E010F55CF
:102420001E4FF80180818F3F09F441C0F894E82FD6
:10243000E295EF70F0E091A18F7021E001C0220FD2
:102440008A95EAF7892F822B81A382A120952823E0
:1024500022A37894AADFAEE9B1E031E0F12C2D910E
:102460002F3F79F0E22FE295EF70E05EF0E080819F
:1024700090E02F7002C0959587952A95E2F780FF2E
:102480001BC080E0F82A330F81E0A13AB80739F782
:10249000F80180818F3F09F08CDF61E0F11001C00D
:1024A00060E08E2D84DFF601EC0FFD1FF082CDB7CA
:1024B000DEB7E8E00C942A26832FE4CF90DFEBE030
:1024C000F3E084E011928A95E9F7E7E0F3E084E035
:1024D00011928A95E9F73DD058CFA4E0B0E0E3E748
:1024E000F2E10C941126FE013196DF0184E01D9289
:1024F0008A95E9F710E00E2FFF2E612F802F9F2D78
:1025000083DF1F5F1430C9F744E050E0602F7F2D58
:1025100087E093E00E94442641E0892B69F440E083
:102520006BE073E087E093E015D0182F30DF812F48
:102530002496E5E00C942D2689819A81AB81BC819B
:102540008093070390930803A0930903B0930A03B1
:10255000E7CF0895EF92FF920F931F93CF93DF93EE
:102560008C017B01C42F411579F081E080938302B7
:102570000E94F01D809381029093820280E0CDB78B
:10258000DEB7E6E00C942C26D0918302D115B1F38E
:1025900080918102909182020E94811D059770F3C3
:1025A00044E050E0B801C7010E944426892B41F065
:1025B00084E0F801D70101900D928A95E1F7CD2FC3
:1025C000109283028C2FDBCFD1CB08950E948A1DFD
:1025D0000E94C4209BDB0E94DC20BCDB0E94E52023
:1025E0000E94E820F1DF0E94FE209EDBF9CF80935D
:1025F000C6019093C7010895AB0124E630E0BC0109
:1026000088E70E94C61E9C0181E0232B09F080E030
:102610000895AB0124E630E0BC0188E70E940E1F5C
:102620009C0181E0232B09F080E008950F931F9314
:102630009B0104E610E0AC0160E488E70E94521FB1
:102640009C0181E0232B09F080E01F910F910895F8
:102650000C94951E08950895EFE0F3E0DF0180E00B
:1026600094E01D920197E9F7E0931307F0931407A4
:102670008FEF9FEF8093CF029093D0020895CF9376
:10268000EADF0E94790490E480FF90E88093CB0217
:102690009093CA02DDDF6BE070E080E391E0B9DF88
:1026A000811104C0C0E08C2FCF9108958091CB029E
:1026B00065E070E081FD26C08BE291E0AADF811524
:1026C00089F36DE070E089E191E0A3DFC82F811507
:1026D00049F30E94FC1DDC01CB01805D9A48AF4F9D
:1026E000BF4F80930F0790931007A0931107B093EB
:1026F0001207B2DF81E08093CE028093CD02109268
:10270000CC02D1CF86E291E0D9CF2091CA0236E047
:10271000839FC0011124269F800D911D11249430A8
:1027200014F080E090E0815F9C4F809313079093BA
:10273000140708952091130730911407295033404E
:102740004091CA02642F70E0C9010E94D725481B3E
:10275000463010F4240F311D343010F020E030E00A
:10276000215F3C4F209313073093140708951F9364
:10277000CF93DF93162F8A3031F481E06ED0DF9152
:10278000CF911F9108958D3011F480E0F7CFC09163
:102790001307D091140796E0FE01A4E8B2E001907F
:1027A0000D929A95E1F7803EA8F086E019928A95FD
:1027B000E9F711111BC0C0911307D091140746E02F
:1027C00050E0BE0184E892E00E944426892BE1F4A7
:1027D000B1DFD5CF96E0899FB0011124655C7E4FB3
:1027E00046E050E0CE010E943B26E3CFE091130784
:1027F000F09114079F012A5F3F4F2E173F07D9F230
:10280000808180958193F9CFCF50D340CE0126E0CF
:10281000969587952A95E1F721E030E0A90102C05D
:10282000440F551F8A95E2F7CA014091CF0250919B
:10283000D002842B952B259646E0D695C7954A95D0
:10284000E1F702C0220F331FCA95E2F7822B932BC8
:102850008093CF029093D002BBCFCF93382FE091DB
:102860001307F0911407EF50F3402091CA02622F32
:1028700070E0CF010E94D725281B822F311569F007
:1028800066E00E94CB25C82FC11102C0CF910895E8
:10289000C15060E080E26BDFF7CF8E0F9F2F911D5C
:1028A000943010F080E090E0815F9C4F809313079C
:1028B00090931407EBCFFF920F931F93CF93DF9367
:1028C000EC01F62EFC0101900020E9F78F01015088
:1028D0001109C017D10728F0CDB7DEB7E5E00C9499
:1028E0002D266F2D899143DFF4CFE5DF81E0B5CF51
:1028F0001F93CF93DF93EC01162FFE01849181117A
:1029000004C0DF91CF911F910895612F30DF219690
:10291000F4CFEEDF81E0A1CFCF93C091CE02C11101
:1029200005C0C091CD028C2FCF9108950E94FC1D4F
:10293000DC01CB01805D9A48AF4FBF4F80930F07FA
:1029400090931007A0931107B09312078091CD02C6
:102950008111E9CF62E070E087E191E05ADE8115F4
:1029600001F381E08093CD02DECF2F923F925F9200
:102970006F927F928F929F92AF92BF92CF92DF928F
:10298000EF92FF920F931F93CF93DF93582E809176
:10299000CF029091D002892BC1F08091CE02811597
:1029A000A1F08091CC02811110C0B6DF00E010E0F0
:1029B000380163942091CF023091D0022115310566
:1029C00021F00115A9F0511013C0DF91CF911F9193
:1029D0000F91FF90EF90DF90CF90BF90AF909F90BE
:1029E0008F907F906F905F903F902F9008951F5F22
:1029F000812F90E04301012E02C0880C991C0A949B
:102A0000E2F7A40142235323452B89F32091CB0203
:102A100020FD35C096958795282F10FB442746F951
:102A2000342F315C409306018093090130930701F4
:102A300020930A0167E070E084E091E0DDDD81151C
:102A400021F220E4129FC00111242091CB0220FD2D
:102A500020C060E470E0815F9C4FE8DD811509F4DF
:102A6000B4CF0F5F809490948091CF029091D00268
:102A7000882199218093CF029093D0029BCF912FF0
:102A8000990F990F990F492F995F392F80E027E00F
:102A9000C9CFEAE8F2E020E411922A95E9F7ADEA1D
:102AA000B1E065EA71E0ED91EB012991BE01422FA1
:102AB000480F592F511D1A01F0E0E657FD4F20E055
:102AC00030E047E0B42EB21AD62C022E01C0DD0C45
:102AD0000A94EAF7E101C15FDC4FE12CF990FD2097
:102AE0004B2D4E19477050E0AF2C042E01C0AA0C9C
:102AF0000A94EAF7519541955109477001C0F6943F
:102B00004A95EAF7FA2840814F294083E3944E2DF5
:102B1000483021F72F5F3F4F31962830310589F635
:102B200025EB31E02A173B0709F0BDCF60E470E0E8
:102B30008AE892E092CFCF93C091CE028091CD02ED
:102B4000C11106C091E08927C82F8C2FCF9108951D
:102B50008115D9F362E070E085E191E05ADD8111E1
:102B600003C0C091CD02F1CF1092CD02EECF0C94F4
:102B70007B0408958091CE02811501F160E080E030
:102B8000C4DDF5DF80E0F1DE8091CD028115B1F08A
:102B90000E94FC1D20910F073091100740911107F2
:102BA00050911207DC01CB01821B930BA40BB50BD8
:102BB0008F3F9F4FAF4FBF4708F4BDCF0895ABC8BD
:102BC0000895E2EDF2E088E011928A95E9F7DFC01E
:102BD000FC01228130E02395237030E0938181E075
:102BE0009217130609F080E008950F931F93CF9377
:102BF000DF93EC01162F042FEBDF811114C08A81C3
:102C0000FE01E80FF11D912F00FB97F994838F5F70
:102C100083708A8388818F5F888381E0DF91CF9181
:102C20001F910F91089580E0F9CFFC01A38182816B
:102C30008A17B1F0AE0FBF2FB11D14968C9187FB90
:102C4000992790F98F77DB018C93DA019C9383812C
:102C50008F5F8370838381818F5F818381E008959B
:102C600080E00895462F682F82ED92E0BECFAB0141
:102C7000BC0182ED92E0D9CFCF93DF93D62F0E9493
:102C80002604C82F811541F06AE070E089EAD1116D
:102C900001C08AEA0E94A0068C2FDF91CF9108958F
:102CA000A2E0B0E0E6E5F6E10C9412268091D102B4
:102CB000811551F01092D1028091D4028093D502F7
:102CC0008091D2028093D3029CD079DF182F811596
:102CD00069F010E004C06981182F8A81CDDFCE0130
:102CE0000196BC010196C3DF8111F5CF812F229699
:102CF000E4E00C942E268FE891E00197F1F700C0F4
:102D00000000089520B36C506F7081E001C0880FFF
:102D10006A95EAF7982F9095922390BB91B3892BEF
:102D200081BB08958FB190E06C506F7002C0959593
:102D300087956A95E2F7817008950895CF93DF93A0
:102D4000C0E08091DA02C81750F0D5DFC0E0809172
:102D5000DA02C81760F0F1DFDF91CF91089560E0EB
:102D60008C2FD0DF61E08C2FCDDFCF5FEACF60E02A
:102D70008C2FD8DFD82F61E08C2FD4DFEC2FF0E040
:102D8000E452FD4F880F8D2B8083CF5FE0CF81E031
:102D90008093DA02D3CF1F93CF93DF93182F440F82
:102DA000642BC82FD0E0DE01A452BD4FEC918E2FD2
:102DB0008370681711F1EE0FEE0FE62BEC93EF70B6
:102DC000F0E0EB54FE4FC552DD4F80819881890FB2
:102DD000888384301CF060E0812F44DF88818D3F40
:102DE0001CF461E0812F3EDF8881982F990F990BA9
:102DF00064E070E00E94EB258883DF91CF911F9102
:102E00000895CF93DF93C0E08091DA02C81718F0DD
:102E1000DF91CF91089561E08C2F84DFD82F60E09F
:102E20008C2F80DF4D2F682F8C2FB5DFCF5FECCF3D
:102E30000C94200E089580E0ADDA817008954DDB8A
:102E40008FE39CE90197F1F700C0000046DBF3DF58
:102E5000811511F0EDDF00C70895F1CF0895CF93EC
:102E6000DF93EB0186319C4709F50E94F50C9D81AB
:102E7000911599F08A7A91E0811101C090E09093C8
:102E8000DD02811541F085E324D50E94A20D80E08A
:102E9000DF91CF91089589E2F7CF8091DD0281150E
:102EA00019F085E32DD5F1CF89E2FCCF81E0F0CF99
:102EB000CF93DF93EC01FB018581811509F4CBC031
:102EC0009E0130572332310508F0ABC085E093E016
:102ED0000E942A0EFE01E150F047E232F10520F493
:102EE000E656F94D0C94FE25809105038160809390
:102EF000050390C0809106038860809306038AC012
:102F0000809105038260F3CF809105038460EFCF49
:102F1000809105038860EBCF809106038160EDCF3F
:102F2000809106038260E9CF809105038061DFCF45
:102F3000809105038062DBCF809105038064D7CF49
:102F40000E94CD08809105038068D1CF8091050350
:102F50008C60CDCF809106038360CFCF8091050335
:102F60008E7FC5CF80910603877FC7CF80910503F1
:102F70008D7FBDCF809105038B7FB9CF80910503F5
:102F8000877FB5CF809106038E7FB7CF80910603F0
:102F90008D7FB3CF809105038F7EA9CF80910503EC
:102FA0008F7DA5CF809105038F7BA1CF0E94CD0897
:102FB000809105038F779BCF80910503837F97CF07
:102FC000809106038C7F99CF90910503892F8B7F89
:102FD00092FF8460877F92FF886089CF809106038B
:102FE000982F909590FB80F990FB81F986CF909176
:102FF0000503892F8F7B96FF806479CF0E94CD08CF
:1030000090910503892F97FB87F9805870CF81E055
:103010000E942E0E85E093E00E942C0E0E94CD08A7
:1030200080E0DF91CF91089580E0F2CF9091050389
:10303000892F8F7E94FF80615ACF90910503892F4D
:103040008E7F90FF816053CF90910603892F877FF9
:1030500093FF886052CF81E0E4CF382F25EB320315
:10306000C001112497FF04C080589109892F089549
:1030700080589F4FFBCF8091E40280FF0DC060918C
:10308000100170E0660F771F6038710588F56115D3
:10309000710581F1862F089581FF07C060911001AD
:1030A00084E0689FB0011124EFCF82FF04C06091DB
:1030B000100188E0F6CF9091E3029115B9F060918C
:1030C0000F0180911001961728F098E0899FB001B8
:1030D0001124DACF899FC001112423E0880F991FA2
:1030E0002A95E1F770E00E94EB25CECF68E0D2CFC1
:1030F0008FE7089581E008958091E40280FF0CC07D
:1031000060910C0170E075956795759567956115EF
:10311000710541F1862F089581FF06C060910C0171
:1031200070E075956795F3CF60910C0182FD0BC03F
:103130009091E2029115A1F060910B0180910C0138
:10314000961738F0682F70E06038710500F38FE74C
:103150000895899FC001112470E00E94EB25F4CFEF
:1031600061E0D8CF81E00895E82FED5CE33198F578
:10317000F0E0E454F94D0C94FE257DDF81958093B9
:10318000E802089578DFFBCF76DF81958093E70230
:10319000089571DFFBCFB0DF8093E9020895ACDFC3
:1031A0008195FACFA9DF81958093EA020895A4DF83
:1031B000FBCF815D990B21E001C0220F8A95EAF7D0
:1031C0008091E602822B8093E60208958091E402CA
:1031D00081608093E40208958091E4028260F9CFD7
:1031E0008091E4028460F5CF4091E7028D3C59F470
:1031F0008091E80287FF0DC01092E802411559F452
:103200001092E30208C08E3C81F48091E802181607
:103210009CF3411581F08091E9029091EA02892B9B
:1032200009F056C01092E20208958F3C41F447FF26
:10323000F0CF1092E7028091E8028115E0CF803D47
:1032400019F41416B4F3E5CF9091E902893D29F4FD
:103250001916FCF61092E902DCCF8A3D19F497FFAB
:10326000D8CFF8CF9091EA028B3D29F497FFD1CFC8
:103270001092EA02CECF8C3D19F41916CCF3C9CFC7
:10328000982F915D983078F4815D990B21E001C011
:10329000220F8A95EAF7822F80959091E602892382
:1032A0008093E602B6CF8D3D31F48091E4028E7FAB
:1032B0008093E402AECF8E3D21F48091E4028D7FB5
:1032C000F7CF8F3D09F0A5CF8091E4028B7FF0CF3F
:1032D000089586D49C019091E7028091E802982B92
:1032E00021F02093E0023093E1029091E902809175
:1032F000EA02982B21F02093DE023093DF0285EE64
:1033000092E0DBC1E5EEF2E086E011928A95E9F702
:103310001092E3021092E2021092E4020895FC017E
:10332000828181110EC0838181110BC08481811142
:1033300008C091E08581811101C090E0892F8170E2
:10334000089581E0FCCFA6E0B0E0E9EAF9E10C9451
:10335000112686E0E5EEF2E09E012F5F3F4FD90196
:1033600001900D928A95E1F71092E7021092E8021F
:103370001092E9021092EA028B819C81892B022F24
:10338000F32E811581F08091E0029091E102B9D392
:10339000AC019091E3029115A1F180911101841784
:1033A000150608F43BC08D819E81892B89F08091A0
:1033B000DE029091DF02A5D3AC019091E20291155B
:1033C00009F45AC080910D018417150608F462C0F3
:1033D000602F7F2D85EE92E0C2D2811104C085EE70
:1033E00092E09DDF811175DF86E0E02FFF2DA5EED5
:1033F000B2E001900D928A95E1F72696E5E00C94F3
:103400002D26209112018AE0289F90011124241773
:10341000350748F69F5F9093E30202C09F3FD1F7C4
:103420001B81111551F027DE91E011160CF09FEF72
:10343000899F802D11248093E7021C81111551F082
:103440001ADE91E011160CF09FEF899F802D112458
:103450008093E8028091E702811509F4A4CF1091CE
:10346000E802111509F49FCFF8DD8093E702812F60
:10347000F4DD8093E80297CF20910E018AE0289F27
:10348000900111242417350708F0A2CF9F5F909375
:10349000E20202C09F3FD1F71D81111551F02CDED1
:1034A00091E011160CF09FEF899F802D11248093DD
:1034B000E9028E81182F811551F01EDE91E0111660
:1034C0000CF09FEF899F802D11248093EA02809158
:1034D000E902811509F47CCF9091EA02192F911528
:1034E00009F476CFBADD8093E902812FB6DD8093AF
:1034F000EA026ECF0F931F93CF93DF93C42FD22F87
:10350000FC0185818115C9F04093ED0269D3809358
:10351000EB029093EC028C2F805E883048F481E0BF
:10352000C1FD84E0C0FD880FC2FD82950E94BD06EA
:10353000DF91CF911F910F9108951091ED02141317
:1035400033C08091EB029091EC02DBD2883C910574
:1035500058F5CD2FC05E1D17C1F0812F805E8830D9
:1035600048F481E011FD84E010FD880F12FD829582
:103570000E94C206C83048F481E0D1FD84E0D0FD4D
:10358000880FD2FD82950E94BD06802F0E94B6064C
:1035900081E0D1FD84E0D0FD880FD2FD8295C83056
:1035A00038F60E94C206C4CF8C2F805E883008F0A7
:1035B000BFCF81E0C1FD84E0C0FD880FC2FD8295D0
:1035C000F0CF0F93FC01CB01E851FC47E730F10548
:1035D00088F5E153F94D0C94FE2506E221EE41EE0B
:1035E0006AE17CE787DF80E00F91089507E225EE2E
:1035F00045EE6BE17CE7F6CF06E221EE40EE68E1B6
:103600007CE7F0CF07E225EE44EE69E17CE7EACF04
:1036100006E221EE42EE6CE17CE7E4CF07E225EE24
:1036200046EE6DE17CE7DECF08E221E045EE6EE19B
:103630007CE7D8CFFB01858181111092ED0281E0FA
:10364000D3CF8093F2029093F302089508950895E2
:10365000EDD1982F81E0913009F080E00895E0915C
:10366000F202F091F302309739F00190F081E02DF1
:10367000309711F00995089580E00895E091F202E5
:10368000F091F302309731F00280F381E02D309712
:1036900009F009950895E091F202F091F302309754
:1036A00059F024813581232B39F026E0DC012C935D
:1036B0000480F581E02D09950895E091F202F091E2
:1036C000F302309759F026813781232B39F022E01D
:1036D000DC012C930680F781E02D09950895A3E085
:1036E000B0E0E5E7FBE10C9414262091F002309164
:1036F000F10228173907B1F08093F0029093F1029C
:10370000E091F202F091F302309761F00084F185CC
:10371000E02D309739F023E029838A839B83CE0103
:10372000019609952396E2E00C943026A3E0B0E0E0
:10373000ECE9FBE10C9414262091EE023091EF02AB
:1037400028173907B1F08093EE029093EF02E091D1
:10375000F202F091F302309761F00084F185E02DE0
:10376000309739F024E029838A839B83CE01019628
:1037700009952396E2E00C943026CF93DF93C09115
:103780000201D091030164DF811521F080910503CE
:1037900087FD11C09E012E5F3F4F96E080E0915063
:1037A000F90140812F5F3F4F41118F5F9111F7CF9A
:1037B000DF91CF91089520910001309101012E5F9A
:1037C0003F4F9EE1EBCFCF93C82F811102C080E025
:1037D0002EC03EDF811521F08091050387FD0FC0CB
:1037E0008091020190910301FC013296089620819C
:1037F0002C17F9F03196E817F907C9F7E8CF8C2FA5
:10380000869586958695C03F10F7E0910001F0916E
:103810000101E80FF11D228130E0C77081E001C095
:10382000880FCA95EAF7282381E0232B81F2CF91F4
:10383000089581E0FCCF9C01FC01329680E09FEF6F
:103840004081461759F031969F3F19F4411101C04C
:10385000982F8F5F8630A1F79F3F09F40895290FB5
:10386000311D97FD3A95F90162830895FC01329666
:1038700008962191261302C0DF011E92E817F9076E
:10388000C1F70895262F269526952695603F60F46A
:10389000820F911DFC01677021E001C0220F6A9523
:1038A000EAF78281822B82830895262F269526951A
:1038B0002695603F68F4820F911DFC019DEF61FD2C
:1038C00097EF60FF959562FD9295828189238283AF
:1038D0000895CF93C82FBCDE6C2F811559F08091CD
:1038E000050387FF07C08091000190910101CADFA5
:1038F000CF91089580910201909103019CDFF8CF50
:10390000CF93C82FA5DE6C2F811559F08091050348
:1039100087FF07C08091000190910101C6DFCF9120
:1039200008958091020190910301A0DFF8CF90DE0D
:10393000811571F08091050387FF0AC0E0910001B5
:10394000F091010132968EE111928A95E9F708957E
:10395000E0910201F0910301329686E0F5CFDC019F
:10396000FB0111969C9111978181981322C01296A8
:103970008C911297811519F0928189131AC01396B0
:103980008C911397811519F09381891312C01596A4
:103990008C911597811519F0958189130AC0149699
:1039A0009C91911521F081E02481291303C080E0CE
:1039B00001C081E0817008950895FECF08958F5F62
:1039C000809316016091130170911401809115018B
:1039D00090911601F2CF83E080931601609113015C
:1039E000709114018091150190911601E6CFE7CFF7
:1039F000089581E080931601609113017091140184
:103A00008091150190911601D8CFF3CF089591E0E0
:103A1000811101C090E090931501609113017091A4
:103A200014018091150190911601C7CF8091150165
:103A30000895809314016091130170911401809195
:103A4000150190911601B9CF8091140108958093CA
:103A500013016091130170911401809115019091EF
:103A60001601ABCF80911301089508950895FECFFC
:103A7000089508950895F9CF08950F931F93CF9354
:103A8000DF93F7DF0E946D12F5DF04EF12E0C0E074
:103A9000D0E08C2F0E94CA11F80181938F0191E030
:103AA000811101C090E0D92BCF5FC43091F78D2FE9
:103AB000DF91CF911F910F910895E82FF0E0EC5026
:103AC000FD4F808190E021E030E002C0220F331FE3
:103AD0006A95E2F72823392381E0232B09F480E05B
:103AE000089541110DC0E82FF0E0EC50FD4F21E0AA
:103AF00001C0220F6A95EAF7209580812823208350
:103B00000895CF93DF93EC016BD08C1B9D0BDF915D
:103B1000CF91089585B7806885BF85B7806885BFD8
:103B200008951F921FB61F9211248F939F93AF93F6
:103B3000BF938091F802811113C080911507909175
:103B40001607A0911707B09118074196A11DB11D46
:103B50008093150790931607A0931707B093180743
:103B6000BF91AF919F918F911F901FBE1F9018958D
:103B700080911D07843031F10E9496051092F80261
:103B800088E190E020E40FB6F894A8958093600057
:103B90000FBE2093600083B7817F846083BF83B7AB
:103BA000816083BF7894889583B78E7F83BF0FB67B
:103BB000F894A895809160008861809360001092CD
:103BC00060000FBE08950E94CD080C949C0582E011
:103BD00084BD93E095BD9AEF97BD80936E000895E4
:103BE0002FB7F8948091150790911607A0911707A9
:103BF000B09118072FBF08952FB7F894609115075B
:103C00007091160780911707909118072FBF08959C
:103C100078941F921FB61F9211248F939F93AF9396
:103C2000BF938091150790911607A0911707B09147
:103C300018070196A11DB11D8093150790931607D3
:103C4000A0931707B0931807BF91AF919F918F91E1
:103C50001F901FBE1F90189587E797E78093000875
:103C60009093010888E19AE00FB6F894A8958093A4
:103C700060000FBE90936000FFCF88E19AE00FB61E
:103C8000F894A895809360000FBE90936000FFCFDA
:103C9000EF92FF921F93CF93DF93182FEB011092B7
:103CA000BC0084EA8093BC009BDF7C018091BC0057
:103CB00087FF25C08091B900887F883029F08091E6
:103CC000B900887F803171F51093BB0084E8809340
:103CD000BC0086DF7C018091BC0087FF1DC0209165
:103CE000B900287F80E090E0283181F081E090E009
:103CF000203409F480E091958195910907C0C701AE
:103D000000DFC817D90790F68EEF9FEFDF91CF91B4
:103D10001F91FF90EF900895C701F3DEC817D907F0
:103D2000D0F6F2CF8FEF9FEFF1CF1092B9008CE079
:103D30008093B80008950F931F93CF93DF93EB0107
:103D40008093BB0084E88093BC004ADF8C018091A3
:103D5000BC0087FF10C02091B900287F81E090E06F
:103D6000283209F480E0919581959109DF91CF91F6
:103D70001F910F910895CF3FDC0749F3C801C1DEC1
:103D8000C817D90720F78EEF9FEFF0CFA0E0B0E083
:103D9000EBECFEE13EC7982E862E772E6A01790164
:103DA0001FDF5C0184E1E816F10410F18FEFE816E3
:103DB000FE0409F1C70164E170E0F9D6162F072F60
:103DC000612F702F892D64DFEC01892BB1F4082D50
:103DD000172DC00ED11E0C151D0511F02097B9F03E
:103DE00084E98093BC00CE01CDB7DEB7EDE02DC7EE
:103DF00011E000E0E5CF15E0FCCF8FEFE816FE0400
:103E0000F9F2C5017EDEE816F906D0F6E0CFB7017B
:103E1000F80181918F018FDFEC01DDCFA0E0B0E0F0
:103E2000E3E1FFE1F6C6982E862E772E6A0189011E
:103E3000D7DE5C010431110500F10F3F100701F1DD
:103E4000C80164E170E0B3D6EB01BE01892D20DF2B
:103E50007C01892BB9F4C82DD72DCC0EDD1ECC15D5
:103E6000DD0519F0E114F104B1F084E98093BC00A0
:103E7000C701CDB7DEB7EDE0E8C6C1E0D0E0E5CFE1
:103E8000C5E0FCCF0F3F100701F3C5013ADE08176C
:103E90001907D8F6E0CFFE018491B8014CDF7C0110
:103EA0002196DDCFA0E0B0E0E7E5FFE1B1C6982EB6
:103EB000862E742E652E6901E80192DE5C010431C4
:103EC000110500F10F3F100709F1C80164E170E02E
:103ED0006ED6F62EE72E6F2D7E2D892DD9DE8C0124
:103EE000892BB9F0CF3FDC07B1F3C5010ADEC81753
:103EF000D90788F784E98093BC00C801CDB7DEB745
:103F0000EEE0A2C6FF24F394E12CE5CF85E0F82E85
:103F1000FBCFBE01882D0FDF8C01E72CF62CCE0CD9
:103F2000DF1CEC14FD0431F30115110519F7BE0176
:103F3000F70181917F01FFDE8C01F3CF9B01BA0174
:103F400090911D079430D9F48F708093E9009FEF12
:103F50008091E80085FD06C085ED8A95F1F70000A7
:103F60009150B1F78091E80085FF09C040E050E032
:103F7000C901B6D18091E8008E778093E80008955A
:103F800043E050E0BC0182E0D9CF46E050E0BC0104
:103F900082E0D4CF40E250E0BC0182E0CFCFCF93AB
:103FA000DF93EC0143DD48E050E0BE0181E0C6DF75
:103FB00088E0FE01A9EFB2E001900D928A95E1F749
:103FC000DF91CF91089580911C07811107C016D30E
:103FD00066D38091E20084608093E200089510929D
:103FE0001C07089506DD81E012CD6091190781E07C
:103FF000611101C080E0EFCC90911D0781E0943009
:1040000009F080E060911907F2CC42E061EC81E0B8
:1040100071D242E261EC82E06DD290911D0781E0A5
:10402000943009F080E060911907C9CC80911F0796
:10403000893081F148F4823009F496C0833009F464
:1040400057C0813041F008958A3009F480C08B3028
:1040500009F468C0089580911E07813A09F047C0AD
:104060008091E800877F8093E800809122079091FB
:104070002307892B59F060E080E090E070E07DD16B
:104080008091E8008B778093E800089568E089EFDD
:1040900092E0F4CF80911E07813249F5809122078A
:1040A00090912307029718F58091E800877F80930D
:1040B000E8008091E80082FF16C02091F300809113
:1040C000F200922F029731F48091F100813011F0CB
:1040D000863019F48091F100ACDC8091E8008B7798
:1040E0008093E8003BC280911D078111E2CF0895C3
:1040F00080911E07813AD9F780912207909123077A
:10410000892BA9F78091E800877F8093E800809150
:10411000E80080FFFCCF8ADC8093F1008091E8000A
:104120008E77DECF80911E07813209F780912207BA
:1041300090912307892BD9F68091E800877F80939F
:10414000E8000CD28091200762DC0C94CD088091AD
:104150001E07813261F68091E800877F8093E80036
:10416000FDD18091210773CC80911E07813A09F01F
:10417000BECF8091E800877F8093E8008091E800BF
:1041800080FFFCCF6FDCC8CF84B7877F84BF0FB6BA
:10419000F894A895809160008861809360001092E7
:1041A00060000FBE80E890E00FB6F8948093610045
:1041B000909361000FBE29CC21D271D2E2EEF0E0E3
:1041C0008081846080837894CDC487E191E039CA8E
:1041D00080911D07853029F480911D07853011F0ED
:1041E000F2CC0895C5DC49DC8115B1F380911B0741
:1041F000811591F35FD00E94CD08EECF08959A010A
:10420000409124075091250700C0492F50E04330CA
:104210005105C9F070F441305105E9F142305105C2
:1042200071F48BE390E049EC56E0F901408351834F
:10423000089541325105E9F04232510519F180E00B
:1042400090E040E0F2CF482F50E0813061F0423002
:10425000510561F0E5ECF6E04115510581F78491D7
:1042600090E0AF01E2CFE9E9F6E0F9CFEBE7F6E065
:10427000F6CF61307105A0F011F789E090E044EFCE
:1042800056E0D3CF6130710580F0C9F686EB90E03F
:1042900046E157E0CACF82E190E044E057E0C5CF65
:1042A00089E090E04BED56E0C0CF84E490E04CEC28
:1042B00057E0BBCF80E189BD82E189BD09B400FE32
:1042C000FDCF8091D8008F7D8093D8008091E00051
:1042D00082608093E0008091E00081FDFCCF089532
:1042E000AF92BF92CF92DF92FF920F931F93CF9323
:1042F000DF936C01EB018A0150D1F82E811123C0AC
:104300000115110539F0F80180819181C81BD90B85
:10431000C80ED91EA12CB12C2097A9F08091E800DD
:1043200085FD21C08091E8008E778093E80001151B
:104330001105A1F0F801808191818A0D9B1D808378
:10434000918385E0F82E8F2DDF91CF911F910F91F2
:10435000FF90DF90CF90BF90AF9008951ED1811550
:10436000E9F2F82EF0CFF60181916F018093F10010
:1043700021978FEFA81AB80ACFCFFC01209124070C
:10438000309125072617370720F06115710569F070
:104390009B0190E02115310571F491110CC08091C1
:1043A000E80082FF38C080E008959091E8009E7791
:1043B0009093E800EDCF80911D078115C1F1853004
:1043C000C1F18091E80083FD30C08091E80082FD5A
:1043D000E6CF8091E80080FFDDCF8091F30040912F
:1043E000F200582F2115310519F04830510558F0C9
:1043F00091E04830510509F090E04091E8004E7797
:104400004093E800C7CF81918093F100215031099A
:104410004F5F5F4FE7CF80911D07811541F08530D9
:1044200041F08091E80083FFBACF81E0089582E0F7
:10443000089583E00895FC01209124073091250719
:104440002617370720F06115710569F09B0190E090
:104450002115310571F491110CC08091E80082FFA3
:1044600039C080E008958091E8008E778093E8005D
:10447000EDCF80911D078115C9F18530C9F180917B
:10448000E80083FD31C08091E80082FDE6CF809195
:10449000E80080FFDDCF8091F3004091F200582FBB
:1044A0002115310519F04830510558F091E0483098
:1044B000510509F090E08091E8008E778093E80044
:1044C000C7CF84918093F1003196215031094F5F1D
:1044D0005F4FE6CF80911D07811541F0853041F097
:1044E0008091E80083FFB9CF81E0089582E00895CC
:1044F00083E00895982F973028F08F708093E9001B
:1045000081E008959093E900242F762F50E09817CA
:1045100031F07091EC002091ED005091F00021FD00
:1045200002C09F5FE8CF3091EB003E7F3093EB00FD
:104530003091ED003D7F3093ED003091EB00316024
:104540003093EB007093EC002093ED005093F0005B
:104550002091EE0027FDE5CF80E0089580911E07B1
:1045600087FF13C08091E80082FF06C08091E800B9
:104570008B778093E800089580911D078111F2CF19
:10458000089580911D078115D9F38091E80080FF7F
:10459000F8CF8091E8008E77ECCF2091E400309145
:1045A000E50095E6A9012091EC00822F817020FFA3
:1045B00006C08091E80080FF06C080E00895209149
:1045C000E80022FD1AC080911D07811589F0853011
:1045D00089F08091EB0085FD0FC02091E4003091BF
:1045E000E50042175307F9F29150E1F684E008958F
:1045F00082E0089583E0089581E008955FD066D059
:10460000E0EEF0E0808181608083E8ED80818F774B
:10461000808319BCA7EDB0E08C918E7F8C93808154
:104620008F7E808310921C070895CF93DF9346D02E
:104630004DD0C8EDD0E088818F77888388818068ED
:10464000888388818F7D888319BC10921D07109202
:10465000190710921B0710921A07E0EEF0E0808114
:104660008B7F808388818160888342E060E080E086
:1046700041DFE1EEF0E080818E7F8083E2EE808199
:1046800081608083808188608083E0EE80818E7F7E
:104690008083888180618883DF91CF910895E8EDE0
:1046A000F0E080818F7E8083E7ED80818160808370
:1046B00084E082BF81E080931C07B7CFE8EDF0E093
:1046C00080818E7F80831092E20008951092DA003C
:1046D0001092E10008951F920F920FB60F921124CD
:1046E0002F933F934F935F936F937F938F939F93FA
:1046F000AF93BF93EF93FF938091E10082FF0AC0D5
:104700008091E20082FF06C08091E1008B7F809360
:10471000E10027D28091DA0080FF18C08091D80094
:1047200080FF14C08091DA008E7F8093DA00809140
:10473000D90080FF8FC080E189BD82E189BD09B4C5
:1047400000FEFDCF81E080931D073DDC8091E100FC
:1047500080FF18C08091E20080FF14C08091E200C9
:104760008E7F8093E2008091E20080618093E2007E
:104770008091D80080628093D80019BC85E0809336
:104780001D0733DC8091E10084FF28C08091E200A6
:1047900084FF24C080E189BD82E189BD09B400FEA7
:1047A000FDCF8091D8008F7D8093D8008091E1006B
:1047B0008F7E8093E1008091E2008F7E8093E20003
:1047C0008091E20081608093E20080911907811559
:1047D00009F445C084E080931D070EDC8091E10060
:1047E00083FF27C08091E20083FF23C08091E10016
:1047F000877F8093E10082E080931D071092190764
:104800008091E1008E7F8093E1008091E2008E7FB5
:104810008093E2008091E20080618093E20042E0B8
:1048200060E080E067DE8091F00088608093F000B7
:10483000D9DBFF91EF91BF91AF919F918F917F91C4
:104840006F915F914F913F912F910F900FBE0F90FD
:104850001F90189519BC10921D07C1DB77CF80916E
:10486000E30087FF02C083E0B6CF81E0B4CF1F92A0
:104870000F920FB60F9211241F932F933F934F93D4
:104880005F936F937F938F939F93AF93BF93CF93D8
:10489000DF93EF93FF93E9EEF0E080811091EC005D
:1048A0008F7010FB112717F9182B1082C0EFD0E082
:1048B0008881877F888378941CD0E9EEF0E01082AD
:1048C0008881886088831F701083FF91EF91DF914A
:1048D000CF91BF91AF919F918F917F916F915F9198
:1048E0004F913F912F911F910F900FBE0F901F90EE
:1048F0001895AAE2B0E0EEE7F4E295C18EE197E008
:10490000FC0101962091F100208327E08632920776
:10491000B9F78CDB8091E80083FF37C080911E07D8
:1049200090911F079A3088F5E92FF0E0EA52F94D8F
:1049300065C1803889F0823841F5809122078F70F7
:10494000873018F58093E9008091EB0085FB88277C
:1049500080F91092E90006C080911B07880F9091A2
:104960001A07892B9091E800977F9093E800809335
:10497000F1001092F1008091E8008E7722C0811141
:1049800015C080912007813001F18091E80083FFFC
:104990000AC08091E800877F8093E8008091EB0057
:1049A00080628093EB00AA96E3E059C1823069F7F8
:1049B00080912007811579F01092E9008091E8003C
:1049C000877F8093E800CADDE0CF933009F080E074
:1049D00080931B07F1CF809122078F70282F2150E1
:1049E000263098F68093E9002091EB0020FFE4CF79
:1049F000933031F48091EB0080628093EB00DCCF48
:104A00009091EB0090619093EB0021E001C0220FA8
:104A10008A95EAF72093EA001092EA008091EB0071
:104A20008860EBCF8111B1CF809120078F77182F4D
:104A30008091E3008078812B8093E3008091E800EF
:104A4000877F8093E8008ADD8091E80080FFFCCFBB
:104A50008091E30080688093E30083E0111101C03E
:104A600082E080931D0791CF8058823008F08DCF6F
:104A700080912007909121078C3D23E0920789F5D2
:104A800083E08A838AE289834FB7F894DE01139624
:104A900020E03EE051E2E32FF0E050935700849194
:104AA00020FF03C082958F703F5F8F708A30B8F00F
:104AB000895C8D931D922F5F243169F74FBF8091E0
:104AC000E800877F8093E8006AE270E0CE010196FB
:104AD00054DC8091E8008B778093E80056CF805DAE
:104AE000E8CF6091220770912307AE014F5F5F4FBF
:104AF00086DBBC01892B09F448CF9091E800977FB1
:104B00009093E80089819A8196DCE3CF803809F0A0
:104B10003CCF8091E800877F8093E800809119075F
:104B20008093F10028CF811130CF909120079230EF
:104B300008F02BCF8091E800877F8093E800909366
:104B400019070CDD80911907811529F084E0809305
:104B50001D075BDA1ACF8091E30087FDF7CF81E074
:104B6000F6CF0895CF9380911D07811591F0809124
:104B7000E900C091EC008F70C0FBCC27C7F9C82BAF
:104B80001092E9008091E80083FDB3DECF70C093FE
:104B9000E900CF910895992778E0880F991F96171B
:104BA00008F0961B881F7A95C9F780950895AA1B6F
:104BB000BB1B51E107C0AA1FBB1FA617B70710F008
:104BC000A61BB70B881F991F5A95A9F7809590953A
:104BD000BC01CD01089597FB072E16F4009406D072
:104BE00077FD08D0E4DF07FC05D03EF49095819571
:104BF0009F4F0895709561957F4F0895EE0FFF1FA9
:104C00000590F491E02D09942F923F924F925F927C
:104C10006F927F928F929F92AF92BF92CF92DF92CC
:104C2000EF92FF920F931F93CF93DF93CDB7DEB731
:104C3000CA1BDB0B0FB6F894DEBF0FBECDBF0994C5
:104C40002A88398848885F846E847D848C849B841C
:104C5000AA84B984C884DF80EE80FD800C811B812A
:104C6000AA81B981CE0FD11D0FB6F894DEBF0FBE59
:104C7000CDBFED010895FB01DC0102C005900D924E
:104C800041505040D8F70895FB01DC0104C08D91DC
:104C90000190801921F441505040C8F7881B990BAE
:104CA0000895F999FECF92BD81BDF89A992780B5F4
:104CB0000895A8E1B0E042E050E020C0262FF99925
:104CC000FECF92BD81BDF89A019700B4021639F06B
:104CD0001FBA20BD0FB6F894FA9AF99A0FBE08953C
:104CE0000396272FECDFEADF252FE9DF242FE7CF1C
:104CF0000196272FE4DFE2CFDC01CB01FC01F9991B
:104D0000FECF06C0F2BDE1BDF89A319600B40D9217
:104D100041505040B8F70895F894FFCF02070207BA
:104D2000390739079007AC072A072A07B007220876
:104D30002F082F08AE171D18B61780178417BA173B
:104D40008817BE17CA17941716189817CE179C17EE
:104D5000D217F717A017D617FE17A617DC17E417F8
:104D60008C17C2179017C617AA17E017EE17071867
:104D700014187A17B2172418BD18C218C418C91805
:104D8000D918D918D918D918D918D918D918D9189B
:104D9000CB18CF18D218D718E618EC18F018FC1A50
:104DA000021BED1AF61A081B0E1B141B9924BF24B4
:104DB000C524BF24C52412253425C5248625932562
:104DC000480268020021007F220007280850011EC7
:104DD0000A140100000100241DCF1FCA1FC51FC0F7
:104DE0001F4D6564696100434144004E756D7061FB
:104DF0006400E200E900EA00B500B600B700CD00AB
:104E00008301CC008A019201940121022302240231
:104E10002502260227022A02B300B4006F007000A8
:104E20009F01CB019F02A002E200E900EA00B50069
:104E3000B600B700CD008301CC008A019201940135
:104E40002102230224022502260227022A02B3009D
:104E5000B4006F0070009F01CB019F02A0023133AC
:104E600032946697C6000810182028303838302849
:104E7000201810080000FF0100010000FFFF0000E3
:064E8000010001FF00002B
:00000001FF
